:100000000C94FB000C9423010C9423010C94230109
:100010000C9423010C9423010C9423010C942301D0
:100020000C9423010C9423010C9423010C942301C0
:100030000C9423010C9423010C9423010C942301B0
:100040000C9475070C9423010C94E5070C94BF07DE
:100050000C9423010C9423010C9423010C94230190
:100060000C9417080C942301656E636F64657273BA
:10007000636F756E7400636F6E73006675656C00F8
:1000800074656D7000626F6F737400737065656482
:100090006F0074616368006D637574797065006CDE
:1000A00069737400000000080002010000030407E7
:1000B000000000000000000000D57FAAFE2B815444
:1000C00029FC5683D702A87D52872DF8AC79D30638
:1000D0007BAE04D18550FA2FA471DB0E5A8F25F028
:1000E0008D58F22773A60CD9F623895C08DD77A218
:1000F000DF0AA07521F45E8B9D48E23763B61CC908
:10010000B461CB1E4A9F35E0CF1AB06531E44E9BF7
:10011000E633994C18CD67B239EC4693C712B86DE7
:1001200010C56FBAEE3B91446BBE14C19540EA3FD7
:1001300042973DE8BC69C316EF3A904511C46EBBC7
:10014000C613B96C38ED4792BD68C21743963CE9B7
:100150009441EB3E6ABF15C04B9E34E1B560CA1FA7
:1001600062B71DC89C49E33619CC66B3E732984D97
:1001700030E54F9ACE1BB16472A70DD88C59F32687
:100180005B8E24F1A570DA0F20F55F8ADE0BA17477
:1001900009DC76A3F722885DD603A97C28FD578267
:1001A000FF2A805501D47EAB8451FB2E7AAF05D057
:1001B000AD78D20753862CF90000000025002800F6
:1001C0002B0000000000240027002A00040404047F
:1001D00004040404020202020202030303030303F1
:1001E00001020408102040800102040810200102CE
:1001F00004081020C20911241FBECFEFD8E0DEBFD3
:10020000CDBF23E0A6E9B1E001C01D92AA30B2073C
:10021000E1F711E0A0E0B1E0ECE2F4E202C0059009
:100220000D92A639B107D9F710E0CBEFD0E004C0AA
:100230002197FE010E941310CA3FD107C9F70E94FF
:10024000110A0C9414120C94000090E0FC01E0528E
:10025000FE4F249184539E4FFC018491882399F092
:1002600090E0880F991FFC01EE53FE4FA591B491C9
:10027000FC01E854FE4F859194918FB7F894EC916E
:10028000E22BEC938FBF0895CF92DF92EF92FF9213
:100290006B017C01E0912002F091210282E08083D9
:1002A000C11481EED806E104F104A1F060E079E028
:1002B0008DE390E0A70196010E94F10F21503109D2
:1002C000410951095695479537952795211580E1A4
:1002D0003807A8F0E0912002F0912102108260E836
:1002E00074E88EE190E0A70196010E94F10F215081
:1002F0003109410951095695479537952795E09160
:100300001C02F0911D023083E0911E02F0911F0249
:10031000208310922802E0912402F091250286E0C9
:100320008083E0912202F0912302808180618083AA
:10033000E0912202F0912302808188608083E09125
:100340002202F0912302808180688083E091220262
:10035000F091230280818F7D8083FF90EF90DF906A
:10036000CF900895909103039032A1F02091020361
:10037000290F3327331F2032310510F02052310965
:100380003327F901E853FD4F828F9F5F909303035A
:1003900081E0089580E00895209103032223C1F0B5
:1003A000E0910203F0E0E853FD4F228DFC01208331
:1003B000809102038F5F8093020390910303915019
:1003C00090930303803211F41092020381E00895A8
:1003D00080E0089590E0FC01EC55FF4F2491FC0172
:1003E000E052FE4F3491FC01E453FE4FE491EE23C2
:1003F000C9F0222339F0233001F1A8F4213019F19A
:10040000223029F1F0E0EE0FFF1FE854FE4FA591D6
:10041000B4918FB7F894EC91611126C030953E23CA
:100420003C938FBF08952730A9F02830C9F02430BD
:1004300049F7809180008F7D03C0809180008F7785
:1004400080938000DFCF84B58F7784BDDBCF84B508
:100450008F7DFBCF8091B0008F778093B000D2CF9B
:100460008091B0008F7DF9CF3E2BDACF3FB7F89463
:1004700080910C0290910D02A0910E02B0910F029A
:1004800026B5A89B05C02F3F19F00196A11DB11DEF
:100490003FBFBA2FA92F982F8827BC01CD01620F2B
:1004A000711D811D911D42E0660F771F881F991FE6
:1004B0004A95D1F708958F929F92AF92BF92CF92B3
:1004C000DF92EF92FF924B015C010E9436026B01BA
:1004D0007C010E9436026C197D098E099F09683ED5
:1004E000734081059105A8F321E0821A9108A108C3
:1004F000B10888EEC80E83E0D81EE11CF11C8114FF
:100500009104A104B10429F7FF90EF90DF90CF9000
:10051000BF90AF909F908F9008952FB7F8946091FF
:1005200008027091090280910A0290910B022FBF7C
:100530000895FC0182890895AF92BF92CF92DF9215
:10054000EF92FF920F931F93CF93DF936C017B0188
:100550008B01040F151FEB015E01AE18BF08C01719
:10056000D10759F06991D601ED91FC910190F0818C
:10057000E02DC6010995892B79F7C501DF91CF914F
:100580001F910F91FF90EF90DF90CF90BF90AF90B1
:100590000895FC01538D448D252F30E0842F90E089
:1005A000821B930B541710F0CF960895019708956E
:1005B000FC01918D828D981761F0A28DAE0FBF2F37
:1005C000B11D5D968C91928D9F5F9F73928F90E08D
:1005D00008958FEF9FEF0895FC01918D828D9817FC
:1005E00031F0828DE80FF11D858D90E008958FEF39
:1005F0009FEF0895FC01918D228D892F90E0805C02
:100600009F4F821B91098F739927089580E192E093
:100610000E94FA0221E0892B09F420E0822F08953C
:1006200080E090E0892B29F00E94060381110C9450
:1006300000000895FC01A48DA80FB92FB11DA35A85
:10064000BF4F2C91848D90E001968F739927848FF2
:10065000A689B7892C93A089B1898C918370806415
:100660008C93938D848D981306C00288F389E02DB6
:1006700080818F7D80830895EF92FF920F931F9367
:10068000CF93DF93EC0181E0888F9B8D8C8D981345
:100690001AC0E889F989808185FF15C09FB7F89451
:1006A000EE89FF896083E889F9898081837080649D
:1006B00080839FBF81E090E0DF91CF911F910F91E8
:1006C000FF90EF900895F62E0B8D10E00F5F1F4FF7
:1006D0000F731127E02E8C8D8E110CC00FB607FC06
:1006E000FACFE889F989808185FFF5CFCE010E9494
:1006F0001A03F1CFEB8DEC0FFD2FF11DE35AFF4FE5
:10070000F0829FB7F8940B8FEA89FB898081806221
:10071000CFCF682F80E192E00C943C03CF93DF931E
:10072000EC01888D8823B9F0AA89BB89E889F98909
:100730008C9185FD03C0808186FD0DC00FB607FC3E
:10074000F7CF8C9185FFF2CF808185FFEDCFCE0171
:100750000E941A03E9CFDF91CF9108952091BD0146
:10076000260F3327331F21323105ECF42091E101AC
:10077000FC0190E080E0243069F082E00895A091CF
:10078000BD012191AC0143565E4FA40FB52FB11DA1
:100790002C930196861798F38091BD01680F6093A2
:1007A000BD0180E0089581E0089508958FEF9FEFE7
:1007B00008958FEF9FEF08958091960190E09195B5
:1007C000819591090895CF93DF93CB01EA01642FBE
:1007D0000E94AE03CE01DF91CF910895CF93DF93B6
:1007E0001F92CDB7DEB7698361E0CE0101960E940A
:1007F000AE0381E090E00F90DF91CF91089590E0FB
:1008000080E00895CF93C82F88E090E00E9489038C
:100810006C2F80E192E00E943C0380E192E0CF9156
:100820000C948E03CF92DF92EF92FF92CF93DF93DF
:10083000EC010E948D026B017C01E881F981309707
:1008400011F081E0099580E192E00E94D80297FFC3
:100850000DC00E948D026C197D098E099F096436B6
:1008600071058105910548F38FEF9FEFDF91CF91DF
:10087000FF90EF90DF90CF900895CF92DF92EF92AC
:10088000FF920F931F93CF93DF9380E192E00E943A
:10089000FA02181619060CF09BC084E093E00E943F
:1008A0001204019791F784E093E00E9412040197EB
:1008B00009F08EC084E093E00E9412048C01C1E034
:1008C00097FD2AC084E093E00E9412047C01019706
:1008D000809708F061C088ECC82E82E0D82E84E0B2
:1008E00093E00E941204F60181936F01C0E097FD2E
:1008F000C5E0C601885C92408E159F055CF0C11171
:100900000BC084E093E00E9412049C0197FF46C054
:10091000C3E002C0CC2319F3D091E00284E090E060
:100920000E9489036D2F80E192E00E943C036C2FAE
:100930002AC08091E0029091E102C4E0E217130620
:1009400059F7803891051CF090E080E001C00196D5
:100950000817190719F00F3F110581F4C8ECD2E010
:10096000CE01885C92408E159F0524F489910E94E7
:10097000B201F6CF1093E1020093E00283E090E031
:100980000E948903602F80E192E00E943C0380E195
:1009900092E00E948E0379CFC2E0BECFF801E85406
:1009A000FF4FE491C7018E27FC01E854FF4FE4910B
:1009B000A8ECB2E0CD01885C92408E159F050CF04A
:1009C000B8CF9D91E927F0E0E854FF4FE491F2CFD2
:1009D000DF91CF911F910F91FF90EF90DF90CF901B
:1009E0000895CF92DF92EF92FF92CF93DF931F9201
:1009F000CDB7DEB70E948D026B017C01E09104034C
:100A0000F0910503309711F080E009958091030380
:100A1000882379F01982CE0101960E94CC01898148
:100A200090E00F90DF91CF91FF90EF90DF90CF900B
:100A300008950E943D040E948D026C197D098E0963
:100A40009F096039714081059105C0F280910303CF
:100A50008111D4CF8FEF9FEFE4CF0F931F930E94AC
:100A60008D020091C0021091C1022091C20230910A
:100A7000C302601B710B820B930B0091C402109197
:100A8000C5022091C6023091C70206171707280732
:100A9000390750F40E948D026093C0027093C10226
:100AA0008093C2029093C3021F910F91089580E03A
:100AB0000E94020480E192E00C948E03CF92DF92B8
:100AC000EF92FF920F931F93CF93DF93EC01062FCA
:100AD000642F70E090E080E00E94EE0D6B017C01DD
:100AE0000C0F1D2F111DF801628570E090E080E071
:100AF0000E94F00DA70196010E94EC0F181664F1F8
:100B000020E030E04FE753E4C701B6010E94440FF4
:100B10006B017C01F801668570E090E080E00E9446
:100B2000EE0DA70196010E944F0E0E94B60F6B01B9
:100B3000EB01F8011681812F0E942501209781F495
:100B400060E0812FDF91CF911F910F91FF90EF9087
:100B5000DF90CF900C94EA0160E070E0CB01E5CF2C
:100B6000CF3FD10511F461E0ECCFE12FF0E0EC557F
:100B7000FF4FE491E33059F140F4E130B1F0E2305D
:100B800009F1C038D1057CF7DBCFE73051F1E8300F
:100B900081F1E430B1F78091800080628093800021
:100BA000D0928B00C0928A0004C084B5806884BD56
:100BB000C7BCDF91CF911F910F91FF90EF90DF9015
:100BC000CF90089584B5806284BDC8BCF2CF809177
:100BD0008000806880938000D0928900C092880055
:100BE000E8CF8091B00080688093B000C092B300DD
:100BF000E0CF8091B00080628093B000C092B400DA
:100C0000D8CFEF92FF920F931F93CF93DF938C0176
:100C1000DC01ED91FC910190F081E02D0995D0E08F
:100C2000C0E0E82EF12CCE15DF0564F4D801ED917B
:100C3000FC910680F781E02D40E06C2FC8010995FA
:100C40002196F1CFDF91CF911F910F91FF90EF90FF
:100C50000895CF93DF93EC0188819981009711F07B
:100C60000E94B510198218821D821C821B821A8272
:100C7000DF91CF910895FC0180819181009711F05F
:100C80000C94B51008950F931F93CF93DF93EC014D
:100C9000FC0101900020E9F731978F01081B190B27
:100CA00086E090E00E948903C8010E948903FE014A
:100CB00001900020E9F73197AF014C1B5D0BBE019D
:100CC00080E192E00E949C0280E290E00E94890311
:100CD00080E192E0DF91CF911F910F910C948E03F0
:100CE0000F931F93CF93DF93EC0188819981009735
:100CF00059F02A813B812617370730F081E0DF91D8
:100D0000CF911F910F9108958B016F5F7F4F0E94CC
:100D10003E11009759F0998388831B830A832C81A5
:100D20003D81232B59F7FC011082E8CF80E0E7CF0B
:100D3000EF92FF920F931F93CF93DF938C017B0170
:100D4000EB0109900020E9F72197C61BD70BBE01E4
:100D50000E947006811109C0C801DF91CF911F91D7
:100D60000F91FF90EF900C942906F801D583C4836E
:100D7000B70180819181DF91CF911F910F91FF90F9
:100D8000EF900C940D12CF93DF93EC01198218822F
:100D90001B821A821D821C8264E271E00E94980606
:100DA000CE01DF91CF910895EF92FF920F931F93A1
:100DB000CF93DF936115710541F480E0DF91CF910E
:100DC0001F910F91FF90EF90089541155105B1F0DB
:100DD0007B01EC010C811D81040F151FB8010E94DD
:100DE0007006882351F3288139818C819D81B70158
:100DF000820F931F0E940D121D830C8381E0DECFB2
:100E00001F93CF93DF9385ED8093BC008091990170
:100E100090919A01A0919B01B0919C010796A11D10
:100E2000B11D23E0B695A795979587952A95D1F79B
:100E30002091BC0024FD03C01092E10152C04091FA
:100E4000990150919A0160919B0170919C01452BF1
:100E5000462B472B69F30097A105B10541F02AE223
:100E60002A95F1F700C00197A109B109E1CF80915E
:100E70009801C1E0C0939701882399F1D091B800FF
:100E80001091BA008091BC008A7B8093BC0060E026
:100E900082E10E94EA0160E083E10E94EA0110928F
:100EA000E101C093E3011092E20161E082E10E945E
:100EB000EA0161E083E10E94EA018091B9008E7F3E
:100EC0008093B9008091B9008D7F8093B90088E448
:100ED0008093B80085E48093BC001093BA00D0934F
:100EE000B800DF91CF911F9108951F920F920FB616
:100EF0000F9211242F933F938F939F93AF93BF93A0
:100F00008091080290910902A0910A02B0910B020F
:100F10003091070223E0230F2D3758F50196A11DCC
:100F2000B11D209307028093080290930902A093B9
:100F30000A02B0930B0280910C0290910D02A091D5
:100F40000E02B0910F020196A11DB11D80930C02FB
:100F500090930D02A0930E02B0930F02BF91AF9138
:100F60009F918F913F912F910F900FBE0F901F90E7
:100F7000189526E8230F0296A11DB11DD2CF1F920E
:100F80000F920FB60F9211242F933F934F935F93BD
:100F90006F937F938F939F93AF93BF93EF93FF9341
:100FA00080E192E00E941A03FF91EF91BF91AF910F
:100FB0009F918F917F916F915F914F913F912F9171
:100FC0000F900FBE0F901F9018951F920F920FB6A3
:100FD0000F9211242F938F939F93EF93FF93E091A0
:100FE0002002F09121028081E0912602F0912702F7
:100FF00082FD1BC09081809129028F5F8F732091A9
:101000002A02821741F0E0912902F0E0E05FFD4FF3
:10101000958F80932902FF91EF919F918F912F914E
:101020000F900FBE0F901F9018958081F4CF1F92E4
:101030000F920FB60F9211242F933F934F935F930C
:101040006F937F938F939F93AF93BF93EF93FF9390
:101050008091B900887F803609F44AC0F0F5883263
:1010600009F4A5C018F5803109F499C0B8F48823B3
:1010700009F4F5C0883009F492C0FF91EF91BF9157
:10108000AF919F918F917F916F915F914F913F9120
:101090002F910F900FBE0F901F901895883109F473
:1010A00086C0803251F78093E00114C0803409F487
:1010B0009BC040F48033B9F38833F9F68093E001A4
:1010C00085ECAEC0803509F483C0883509F494C03E
:1010D000883499F60E940007D0CF883909F48AC075
:1010E00038F5883729F050F4883611F0803729F622
:1010F00083E08093E1011092DF0155C0883809F444
:1011000079C0803919F0803809F0B7CF8091DF01BC
:10111000803208F06FC0E091DF0181E08E0F809394
:10112000DF018091BB00F0E0E154FE4F80833BC0C3
:10113000803B39F0D0F4803A09F477C0883A09F05E
:101140009CCF84E08093E1011092BE011092BD011A
:10115000F0E0E0E009958091BD0181110FC081E0D0
:101160008093BD0110929D0109C0803C09F4A8CF75
:10117000883C09F4A5CF883B09F07FCFE091BE0100
:1011800081E08E0F8093BE01F0E0E356FE4F808138
:101190008093BB009091BE018091BD0129C08091D8
:1011A00006028093BB0085EC8093BC0066CF9091D3
:1011B000050280910402981758F5E091050281E03C
:1011C0008E0F80930502F0E0EC51FE4F8081E9CF55
:1011D000E091050281E08E0F809305028091BB00B3
:1011E000F0E0EC51FE4F8083909105028091040263
:1011F0009817C8F285E8D8CFE091050281E08E0FFC
:10120000809305028091BB00F0E0EC51FE4F80839B
:101210008091E30181115ECF81E08093E20184EA55
:101220008093BC001092E10128CF85EC8093BC0034
:101230001092E1018091DF01803230F4E091DF0112
:10124000F0E0E154FE4F10826091DF0170E08FEB1F
:1012500091E0F0E0E0E009951092DF010ECF1092EE
:10126000E00138CF0F931F93CF93DF93EC01FC0184
:1012700001900020E9F731978F01081B190B86E0D8
:1012800090E00E948903C80101960E948903FE0133
:1012900001900020E9F73197AF014C1B5D0BBE01B7
:1012A00080E192E00E949C028AE090E00E94890323
:1012B00080E290E00E94890380E192E0DF91CF918B
:1012C0001F910F910C948E03FC0124813581FB0149
:1012D0004481558124173507E1F4FC018081918117
:1012E000FB01608171810097D1F061157105A1F456
:1012F000232BC1F0FC01808190E008C0232B91F0EA
:10130000FB01808190E091958195910921E0892BE5
:1013100009F020E0822F08950E940412F7CF611592
:10132000710561F721E0F6CFEF92FF920F931F93C3
:10133000CF93DF93EC018B01198218821B821A82F2
:101340001D821C82CB010E94E50D7C01BC01CE01F7
:101350000E947006811109C0CE01DF91CF911F91CB
:101360000F91FF90EF900C942906FD82EC82B8015A
:1013700088819981DF91CF911F910F91FF90EF901C
:101380000C94DE0DE0E1F2E01382128288EE93E02D
:10139000A0E0B0E084839583A683B7838AE091E0E0
:1013A0009183808385EC90E09587848784EC90E03E
:1013B0009787868780EC90E0918B808B81EC90E022
:1013C000938B828B82EC90E0958B848B86EC90E003
:1013D000978B868B118E128E138E148EE8ECF2E0B2
:1013E0008FEF90E0918F808F12AE13AE15AE14AEDA
:1013F000E0ECF2E010821182128213828AE090E027
:10140000A0E0B0E084839583A683B783EDEAF2E0A1
:1014100012821382148215828CE191E09183808381
:101420000895CF93DF93CDB7DEB72C970FB6F8941E
:10143000DEBF0FBECDBF789484B5826084BD84B515
:10144000816084BD85B5826085BD85B5816085BDBF
:1014500080916E00816080936E0010928100809177
:1014600081008260809381008091810081608093FF
:101470008100809180008160809380008091B10024
:1014800084608093B1008091B00081608093B0004F
:1014900080917A00846080937A0080917A008260E3
:1014A00080937A0080917A00816080937A008091A5
:1014B0007A00806880937A001092C10060E07BE43B
:1014C00080E090E00E94440189E08093B30296E0BE
:1014D0009093B4028093B5028AE08093B60281E0D3
:1014E0008093BF0289E00E94250180918100887F5E
:1014F0008560809381001092B7021092B80210921A
:10150000B9021092BA028FEF8093BB028093BC02A3
:101510008093BD028093BE028DE295E09093050317
:101520008093040380E0E82E80E0F82E0E948D0274
:101530000091AF021091B0022091B1023091B2023D
:10154000601B710B820B930B693E73408105910503
:1015500080F0012B022B032B61F08DEA92E00E94B8
:1015600001061092AF021092B0021092B1021092D6
:10157000B202E0910403F0910503309711F080E08E
:10158000099580910303811102C00E943D0480915E
:101590000303882309F48FC00E94F104039709F024
:1015A0008AC00E948D020E94F104813381F40E945E
:1015B000F1046AE070E080E090E00E945B028AE65D
:1015C0000E94020480E192E00E948E0374C088337E
:1015D00009F0ACC00E94F1048C0168EC70E080E07E
:1015E00090E00E945B026CE271E080E090E00130EC
:1015F000110539F00230110501F560EB74E080E06F
:1016000090E00E9444010630110501F560E478E3A2
:1016100080E090E00E9444010B30110501F560E08C
:1016200072EC81E090E00E94440160E47DE083E0A0
:1016300090E000311105E9F11BC00330110501F5FF
:1016400060E679E080E090E00E94440107301105F7
:1016500001F560E07BE480E090E00E9444010C3002
:10166000110501F560E074E883E090E00E94440118
:101670000131110501F560E271EA87E090E019C0DF
:101680000430110531F560EC72E180E090E00E94D9
:10169000440108301105C9F560E870E780E090E08A
:1016A0000E94440160E970ED83E090E00D30110587
:1016B000A9F50E9444010E948D02E114F10409F48D
:1016C00035CF0E940603882309F430CF0E94000022
:1016D0002DCF0530110509F096CF60E875E280E066
:1016E00090E00E9444010A30110509F095CF60E0B6
:1016F00071EE80E090E00E94440160E874E88EE1C1
:1017000090E00F301105A9F290CF0930110559F77B
:1017100060E076E980E090E00E94440160E472E4D9
:101720008FE090E00E30110521F2E7CF8A3419F4F2
:101730000E945705C0CF823319F40E945705BBCFD2
:10174000823419F40E945705B6CF813411F483E036
:1017500037CF8E3449F488E291E00E94430688E353
:1017600091E00E9443062ECF893419F48AE391E078
:10177000F4CF803309F56AE070E080E090E00E94E9
:101780005B028FE591E00E94430681E691E00E94B2
:10179000430683E691E00E94430685E691E00E94BD
:1017A000430687E691E00E94430689E691E00E94A5
:1017B00043068BE691E0D1CF833309F47CCF8635A5
:1017C00009F08FC00E94F104833409F065C08FEFE7
:1017D0000E94020481E00E9402041A8219821C8283
:1017E0001B821E821D8264E271E0CE0101960E947E
:1017F000980618861F821A8619861C861B86098100
:101800001A810115110569F0CD80DE80B601CE0187
:1018100007960E947006811137C0CE0107960E947C
:10182000290641E050E06DE671E0CE0107960E9486
:10183000D406811104C0CE0107960E9429060B85AB
:101840001C8586E090E00E948903C8010E948903FC
:101850004B855C856F81788580E192E00E949C02D7
:1018600080E290E00E94890380E192E00E948E0372
:10187000CE0107960E943B06CE0101960E943B06D0
:101880008AE00E94020417CFDC86CB86B8018F81E4
:1018900098850E940D12C5CF833509F00CCFC090FA
:1018A000BF0210E000E0D12C0C151D057CF40E9455
:1018B000F1048F3F980709F4FECE482F602F8DEA80
:1018C00092E00E945E050F5F1F4FEECF0E948D02D7
:1018D0006093AF027093B0028093B1029093B20212
:1018E000EACE833509F4E7CE843319F40E94570514
:1018F000E2CE863311F485E1C4CF8235E1F38D3435
:1019000009F4D9CE873419F40E94F104D4CE95EBB2
:10191000980F923008F4CFCE803509F063C0188656
:101920001F821A8619861C861B8669E371E0CE0128
:1019300007960E9498060E94F10497FD0FC08A3016
:10194000910561F089831A8241E050E0BE016F5F2A
:101950007F4FCE0107960E94D406EDCF1A821982DE
:101960001C821B821E821D826FE671E0CE010196F1
:101970000E9498064B855C856F817885CE01019623
:101980000E94D406811104C0CE0101960E9429064E
:1019900087E090E00E9489036D817E816F5F7F4FB9
:1019A00080E192E00E943C034D815E8169817A81F1
:1019B00080E192E00E949C026AE080E192E00E9455
:1019C0003C0380E290E00E94890380E192E00E9463
:1019D0008E03CE0101960E943B06CE0107960E941F
:1019E0003B0689CF883509F066CE18861F821A8695
:1019F00019861C861B8669E371E0CE0107960E945A
:101A000098060E94F10497FD12C08032910579F08A
:101A10008A30910561F089831A8241E050E0BE016D
:101A20006F5F7F4FCE0107960E94D406EACF6FE921
:101A300070E0CE0101960E949409BE016F5F7F4F56
:101A4000CE0107960E946409182FCE0101960E94CC
:101A50003B061123A1F083E891E00E9432098BE854
:101A600091E00E9432098AE00E94020480E192E043
:101A70000E948E03CE0107960E943B061CCE67E9AA
:101A800070E0CE0101960E949409BE016F5F7F4F06
:101A9000CE0107960E946409182FCE0101960E947C
:101AA0003B06112341F08EE10E94020485E90E9469
:101AB00002048FE0D9CF62E970E0CE0101960E9466
:101AC0009409BE016F5F7F4FCE0107960E946409A3
:101AD000182FCE0101960E943B061111CBCF6BE867
:101AE00070E0CE0101960E949409BE016F5F7F4FA6
:101AF000CE0107960E946409182FCE0101960E941C
:101B00003B061111B7CF65E870E0CE0101960E9447
:101B10009409BE016F5F7F4FCE0107960E94640952
:101B2000182FCE0101960E943B061111A3CF60E849
:101B300070E0CE0101960E949409BE016F5F7F4F55
:101B4000CE0107960E946409182FCE0101960E94CB
:101B50003B0611118FCF6BE770E0CE0101960E941A
:101B60009409BE016F5F7F4FCE0107960E94640902
:101B7000182FCE0101960E943B0611117BCF66E71C
:101B800070E0CE0101960E949409BE016F5F7F4F05
:101B9000CE0107960E946409182FCE0101960E947B
:101BA0003B06111167CF68E670E0CE0101960E94F6
:101BB0009409CE0101960E943B065CCFFB01DC013B
:101BC00005900D920020E1F70895FC01059000209A
:101BD000E9F7809590958E0F9F1F0895E89409C0AE
:101BE00097FB3EF490958095709561957F4F8F4F50
:101BF0009F4F9923A9F0F92F96E9BB279395F69566
:101C0000879577956795B795F111F8CFFAF4BB0FE3
:101C100011F460FF1BC06F5F7F4F8F4F9F4F16C047
:101C2000882311F096E911C0772321F09EE8872FD1
:101C3000762F05C0662371F096E8862F70E060E08D
:101C40002AF09A95660F771F881FDAF7880F969506
:101C5000879597F90895990F0008550FAA0BE0E8AA
:101C6000FEEF16161706E807F907C0F0121613065E
:101C7000E407F50798F0621B730B840B950B39F49E
:101C80000A2661F0232B242B252B21F408950A2604
:101C900009F4A140A6958FEF811D811D08950E9432
:101CA000620E0C94D30E0E94C50E38F00E94CC0E2A
:101CB00020F0952311F00C94BC0E0C94C20E11244C
:101CC0000C94070F0E94E40E70F3959FC1F3950FDB
:101CD00050E0551F629FF001729FBB27F00DB11DB0
:101CE000639FAA27F00DB11DAA1F649F6627B00D40
:101CF000A11D661F829F2227B00DA11D621F739F29
:101D0000B00DA11D621F839FA00D611D221F749F36
:101D10003327A00D611D231F849F600D211D822F7D
:101D2000762F6A2F11249F5750409AF0F1F08823A4
:101D30004AF0EE0FFF1FBB1F661F771F881F9150D1
:101D40005040A9F79E3F510580F00C94BC0E0C94B6
:101D5000070F5F3FE4F3983ED4F386957795679538
:101D6000B795F795E7959F5FC1F7FE2B880F911DFB
:101D70009695879597F9089597F99F6780E870E0A1
:101D800060E008959FEF80EC089500240A941616F1
:101D9000170618060906089500240A941216130659
:101DA000140605060895092E0394000C11F48823E7
:101DB00052F0BB0F40F4BF2B11F460FF04C06F5F03
:101DC0007F4F8F4F9F4F089557FD9058440F551FD9
:101DD00059F05F3F71F04795880F97FB991F61F0AD
:101DE0009F3F79F087950895121613061406551F24
:101DF000F2CF4695F1DF08C0161617061806991F90
:101E0000F1CF86957105610508940895E894BB2784
:101E100066277727CB0197F908952F923F924F922B
:101E20005F926F927F928F929F92AF92BF92CF926A
:101E3000DF92EF92FF920F931F93CF93DF93CDB773
:101E4000DEB7CA1BDB0B0FB6F894DEBF0FBECDBFEB
:101E500009942A88398848885F846E847D848C84BC
:101E60009B84AA84B984C884DF80EE80FD800C81C5
:101E70001B81AA81B981CE0FD11D0FB6F894DEBFA8
:101E80000FBECDBFED0108950E94580F0C94D30EE4
:101E90000E94CC0E58F00E94C50E40F029F45F3F1E
:101EA00029F00C94BC0E51110C94070F0C94C20E27
:101EB0000E94E40E68F39923B1F3552391F3951B27
:101EC000550BBB27AA2762177307840738F09F5F5B
:101ED0005F4F220F331F441FAA1FA9F335D00E2EC8
:101EE0003AF0E0E832D091505040E695001CCAF735
:101EF0002BD0FE2F29D0660F771F881FBB1F2617F8
:101F000037074807AB07B0E809F0BB0B802DBF01CE
:101F1000FF2793585F4F3AF09E3F510578F00C949D
:101F2000BC0E0C94070F5F3FE4F3983ED4F3869504
:101F300077956795B795F7959F5FC9F7880F911DBE
:101F40009695879597F90895E1E0660F771F881FAA
:101F5000BB1F621773078407BA0720F0621B730B5D
:101F6000840BBA0BEE1F88F7E09508950E94BD0F11
:101F70006894B1110C94070F08950E94EC0E88F03C
:101F80009F5798F0B92F9927B751B0F0E1F0660F3D
:101F9000771F881F991F1AF0BA95C9F714C0B1307E
:101FA00091F00E94060FB1E008950C94060F672F80
:101FB000782F8827B85F39F0B93FCCF386957795AD
:101FC0006795B395D9F73EF4909580957095619596
:101FD0007F4F8F4F9F4F08950E942B0E08F48FEF75
:101FE0000895A1E21A2EAA1BBB1BFD010DC0AA1F5A
:101FF000BB1FEE1FFF1FA217B307E407F50720F072
:10200000A21BB30BE40BF50B661F771F881F991FEC
:102010001A9469F760957095809590959B01AC0135
:10202000BD01CF010895EE0FFF1F0590F491E02D43
:1020300009940F931F93CF93DF938230910510F48F
:1020400082E090E0E0910803F091090330E020E0A5
:10205000B0E0A0E0309799F42115310509F44AC0A9
:10206000281B390B24303105D8F58A819B816115F5
:10207000710589F1FB0193838283FE0111C04081C8
:1020800051810281138148175907E0F04817590719
:1020900099F4109761F012960C93129713961C9373
:1020A0003296CF01DF91CF911F910F910895009348
:1020B000080310930903F4CF2115310551F042179D
:1020C000530738F0A901DB019A01BD01DF01F801D6
:1020D000C1CFEF01F9CF9093090380930803CDCFCF
:1020E000FE01E20FF31F819391932250310939834E
:1020F0002883D7CF2091060330910703232B41F487
:1021000020910201309103013093070320930603CD
:1021100020910001309101012115310541F42DB7C5
:102120003EB74091040150910501241B350BE0910D
:102130000603F0910703E217F307A0F42E1B3F0BF1
:102140002817390778F0AC014E5F5F4F2417350729
:1021500048F04E0F5F1F509307034093060381938F
:1021600091939FCFF0E0E0E09CCFCF93DF93009777
:10217000E9F0FC01329713821282A0910803B0911A
:102180000903ED0130E020E01097A1F420813181B6
:10219000820F931F209106033091070328173907F8
:1021A00009F061C0F0930703E0930603DF91CF913C
:1021B0000895EA01CE17DF07E8F54A815B819E01A9
:1021C00041155105B1F7E901FB83EA834991599122
:1021D000C40FD51FEC17FD0761F480819181029631
:1021E000840F951FE90199838883828193819B8362
:1021F0008A83F0E0E0E012968D919C91139700970E
:10220000B9F52D913C911197CD010296820F931F44
:1022100020910603309107032817390739F63097C4
:1022200051F51092090310920803B0930703A0938D
:102230000603BCCFD383C28340815181840F951F95
:10224000C817D90761F44E5F5F4F88819981480FA5
:10225000591F518340838A819B81938382832115F7
:10226000310509F0B0CFF0930903E09308039ECF46
:10227000FD01DC01C0CF13821282D7CFB0E0A0E015
:10228000E4E4F1E10C940F0F8C01009751F4CB01C1
:102290000E9419108C01C801CDB7DEB7E0E10C94A3
:1022A0002B0FFC01E60FF71F9C0122503109E217AA
:1022B000F30708F49DC0D901CD91DC911197C617A1
:1022C000D70798F0C530D10530F3CE0104978617B3
:1022D000970708F3C61BD70B2297C193D1936D9331
:1022E0007C93CF010E94B510D6CF5B01AC1ABD0A1A
:1022F0004C018C0E9D1EA0910803B0910903512C36
:10230000412CF12CE12C109731F58091060390912E
:1023100007038815990509F05CC04616570608F0B2
:1023200058C08091000190910101009741F48DB750
:102330009EB74091040150910501841B950BE8174D
:10234000F90708F055C0F0930703E0930603F9017D
:1023500071836083A0CF8D919C91119712966C90A0
:10236000129713967C901397A815B90559F56C012F
:1023700042E0C40ED11CCA14DB0420F1AC014A199E
:102380005B09DA011296159780F06282738251839D
:102390004083D9016D937C93E114F10471F0D7016E
:1023A0001396FC93EE93129776CF22968C0F9D1F77
:1023B000F90191838083F301EFCFF0930903E09358
:1023C000080369CF4816590608F42C017D01D30192
:1023D0009ACFCB010E9419107C01009749F0AE0101
:1023E000B8010E94FB11C8010E94B510870153CFAC
:1023F00010E000E050CFFB01DC0102C001900D9223
:1024000041505040D8F70895FB01DC018D910190B7
:1024100080190110D9F3990B0895FB01DC0101909B
:0C2420000D920020E1F70895F894FFCF22
:10242C0000000A038000000000003C039C02C9026B
:10243C008E03FA02D802EC02000000009902C306D7
:10244C0001065E0550574D005352432D583146201E
:10245C004553504F525453000A00363138376136C9
:10246C0065622D303433632D343463302D62313951
:10247C00302D663138653835376261653335004744
:10248C00004E0049004A005000580056003B004DD9
:10249C006573736167652072656365697665642031
:1024AC003A20006D637574797065006B65657061B9
:0624BC006C69766500006A
:00000001FF
