:100000000C94E6000C940E010C940E010C940E015D
:100010000C940E010C940E010C940E010C940E0124
:100020000C940E010C940E010C94A41C0C94131D42
:100030000C940E010C940E010C940E010C940E0104
:100040000C940E010C940E010C940E010C940E01F4
:100050000C940E010C940E010C940E010C945A1C7D
:100060000C940E010C940E010C940E010C940E01D4
:100070000C940E010C940E010C940E010C940E01C4
:100080000C940E010C940E010C940E010C940E01B4
:100090000C940E010C940E010C940E010C940E01A4
:1000A0000C940E010C940E010C940E01080B00022E
:1000B0000202000009040000010202000005240001
:1000C0001001052401010104240206052406000193
:1000D0000705810310004009040100020A00000026
:1000E00007050202400000070583024000000403E8
:1000F000090412010002EF02014071236780000130
:100100000102030153696D52616365436F6D706F46
:100110006E656E7473005352432D5831462045531B
:10012000504F525453000000000200090F0000031A
:100130000401000C000000000000000000000000AE
:100140000000000000000000002300260029002C11
:10015000002F0000000000250028002B002E003199
:100160000000000000240027002A002D00300004B9
:10017000040404040304050202020204030202024E
:100180000206060606060604040202020404040827
:10019000020110408040102040804080080204018D
:1001A00080402010020110801020404020050109ED
:1001B00004A1018504150026FF7F751095030933FE
:1001C000093409358102C000771F282511241FBE7C
:1001D000CFEFDAE0DEBFCDBF24E0A0E8B2E001C09F
:1001E0001D92A43DB207E1F712E0A0E0B1E0E6E322
:1001F000F7E502C005900D92A038B107D9F710E0DD
:10020000C5EED0E004C02197FE010E944028C43E04
:10021000D107C9F70E94A7200C948E2B0C940000E4
:1002200084E98093BC008091BC0084FDFCCF0895DC
:10023000CF93DF93FC0181819091AF04482F490F48
:100240005527551F483051059CF5A281B381109761
:1002500009F52BEA34E03383228320812093AD0417
:100260008093AE048091B004820F80832091B1040A
:10027000A22FB091B2048A2F821B8917E8F48181E2
:100280003D91C82FD0E0C95DDE4F38838F5F8183F9
:10029000F2CFD90118962D913C911997211531056E
:1002A000C1F72BEA34E019963C932E931897D5CFDB
:1002B00080E0DF91CF91089581E0FBCFFC01809138
:1002C0009A02882311F13FB7F89482E08093E90005
:1002D0002091F200822F90E01816190614F481E0A4
:1002E00090E0882339F0289844E6409399024091A1
:1002F000F1004083222339F02091F200211103C044
:100300002BE62093E8003FBF08958FEF9FEF0895FD
:10031000CF93DF9390E0FC01E257FE4F2491815987
:100320009E4FFC0184918823C9F090E0880F991FAB
:10033000FC01EF59FE4FA591B491FC01ED5AFE4F1F
:10034000C591D49161110DC09FB7F8948C912095FF
:1003500082238C938881282328839FBFDF91CF91AC
:100360000895623051F49FB7F8943C91822F8095A4
:1003700083238C93E8812E2BEFCF8FB7F894EC91E9
:100380002E2B2C938FBFEACF3FB7F8948091950224
:1003900090919602A0919702B091980226B5A89BE1
:1003A00005C02F3F19F00196A11DB11D3FBFBA2F07
:1003B000A92F982F8827BC01CD01620F711D811DC7
:1003C000911D42E0660F771F881F991F4A95D1F74C
:1003D0000895CF92DF92EF92FF920E94C4016B01C9
:1003E0007C010E94C4016C197D098E099F09683E39
:1003F000734081059105A8F3FF90EF90DF90CF90B7
:10040000089540918E0250918F0220918C0230917C
:100410008D0242175307B4F49091E8009570E1F310
:100420009091E80092FD19C08093F10080918E02B6
:1004300090918F0201968F739927892B19F48EEF73
:100440008093E80080918E0290918F0201969093A4
:100450008F0280938E0281E0089580E00895EF92EC
:10046000FF920F931F93CF93DF93F82E192FE62E51
:10047000042F81E0860F880F0E94010283E00E9412
:100480000102CF2DD12FEC0EFD2EF11CCE15DF0574
:10049000B9F007FF13C0FE0184910E940102182FDA
:1004A00080E00E940102812321968111EFCFDF912C
:1004B000CF911F910F91FF90EF9008958881EDCF1C
:1004C00081E0F5CFDF92EF92FF920F931F93CF93CE
:1004D000DF93D82E8A01EB017B01E40EF51ECE15C9
:1004E000DF0559F0D7FE12C0FE0184910E9401027F
:1004F00021968111F4CF0FEF1FEFC801DF91CF914B
:100500001F910F91FF90EF90DF9008958881EECFBB
:100510002FB7F89487708093E9009091E800892FB5
:10052000807295FF04C09091F20080E4891B2FBF78
:10053000089583E00E94880290E008957F928F9250
:100540009F92AF92BF92CF92DF92EF92FF920F9362
:100550001F93CF93DF93C82E8B017A0180919A026B
:10056000811110C08FEF9FEFDF91CF911F910F91FD
:10057000FF90EF90DF90CF90BF90AF909F908F90C3
:100580007F9008958091920280FF05C08091E000E5
:1005900082608093E000CE2DDF2DD12C8AEFB82E23
:1005A0008C2D8770982E8C2D8072882E8C2D8074C7
:1005B000782E9AE3A92E209719F4DD2009F44EC075
:1005C0008C2D0E948802811106C0BA94BB2051F282
:1005D0000E94E901F0CF8C171D0611F00CF08C2F52
:1005E0009FB7F8949092E9002091E80025FD02C0A1
:1005F0009FBFE1CF282F30E0C21BD30B882029F00A
:100600008150A0F01092F100FBCFF801C7FC0AC0A6
:10061000815050F041914093F100FACF44914093C2
:10062000F10031968150D0F7020F131FDD2021F029
:10063000A092E800D12CDCCF8091E80085FD07C0B6
:10064000A092E800DD24D394209791F2F3CF209775
:1006500079F6772069F2A092E800CACF5D9884E627
:1006600080939102C70180CF615030F02091F1005A
:10067000FC0120830196F8CF289884E680939902A4
:1006800008958091840281110DC082E080938002E0
:1006900084E080938102109283021092820281E0B2
:1006A0008093840280E892E008951F93CF93DF93B4
:1006B0001F92CDB7DEB78091BC0481112AC011E032
:1006C0001093AF041093B00485EB94E09093B204C0
:1006D0008093B1041092B4041092B30482E691E0C6
:1006E0009093AC048093AB041092B7041092B604BC
:1006F0001092B9041092B8041093BA041093BB047A
:1007000081EC8093B5040E9441030E94180110936C
:10071000BC0484E0898341E050E0BE016F5F7F4FFD
:100720008091AE040E949E0297FD09C08091AE04A4
:1007300046E050E06AEC74E080640E949E020F90F4
:10074000DF91CF911F9108950F931F93CF93DF9364
:100750001F92CDB7DEB782E0898342E450E06CEAB5
:1007600070E080E80E9462020E944103DC01129660
:100770000D911C910115110589F0D801ED91FC91A5
:100780000280F381E02DBE016F5F7F4FC8010995A4
:1007900097FD04C0F80100851185ECCF89810F9089
:1007A000DF91CF911F910F910895CF93DF93EC01CB
:1007B00080910B01882331F083E00E949E0218167D
:1007C000190634F081E090E09B838A8380E090E01A
:1007D000DF91CF910895CF93DF931F92CDB7DEB70E
:1007E0006983DC01ED91FC910280F381E02D41E011
:1007F00050E0BE016F5F7F4F09950F90DF91CF9161
:10080000089583E08093E9008091F200882319F035
:100810008AE38093E8000895CF93DF931F92CDB7CA
:10082000DEB7FC018485958597FD08C02FEF3FEF6B
:10083000358724870F90DF91CF910895CE010196DF
:100840000E945E01019719F4898190E0F3CF8FEF48
:100850009FEFF0CF2FB7F89480919B0290919C026C
:10086000A0919D02B0919E022FBF8093A70290930A
:10087000A802A093A902B093AA028FE992E00E9475
:100880000C0497FF26C02FB7F89480919B0290919B
:100890009C02A0919D02B0919E022FBF4091A702A1
:1008A0005091A8026091A9027091AA02841B950B35
:1008B000A60BB70B4091A3025091A4026091A50230
:1008C0007091A60284179507A607B707B0F28FEFBD
:1008D0009FEF08950F931F93CF93DF931F92CDB790
:1008E000DEB78C01FC018485958597FF0BC0CE0196
:1008F00001960E945E01019771F4898190E0F801F0
:1009000095878487F801848595850F90DF91CF9135
:100910001F910F9108958FEF9FEFF1CFFC01848518
:10092000958597FD0BC09FB7F89482E08093E9000E
:100930008091F2009FBF90E0019608959FB7F894D0
:1009400082E08093E9008091F2009FBF90E00895DB
:10095000DC01FB0112962C91129784819581281756
:10096000190641F491818081813A31F49D7F81E0C3
:10097000913009F080E008958132E1F79B3029F44D
:1009800082811F968C9381E008959A3099F7828135
:1009900050968C93F8CFDC01FB0188E4808389E4D6
:1009A000818384E482831D969C911D979F709F5B39
:1009B00093831D968D919C9124E0969587952A9519
:1009C000E1F78F708F5B848385E00895EF92FF924B
:1009D0000F931F93CF93DF93FB012081213871F593
:1009E0002381223259F5DC0112964C912481358104
:1009F0004217130619F5EC010B851C85F12CE12C2F
:100A00000115110589F0F8014481558162817381D6
:100A100080E80E9462028F3F980749F0E80EF91EB5
:100A2000D8010D911C91ECCF81E08F87C701DF9138
:100A3000CF911F910F91FF90EF90089590E080E08B
:100A4000F6CFCF93DF93CDB7DEB769970FB6F894A3
:100A5000DEBF0FBECDBFFC01DB018C918F5F8C939D
:100A60009E012D5F3F4F8DE0D9011D928A95E9F7D8
:100A700029E0298384E08A8391E09D8383E08E834B
:100A80002A8721E22B879C879D879F8722E2288BDC
:100A900027E02B8B25E02C8B8E8B20E430E0388FE9
:100AA0002F8B998F82818B8395858685998B8A8BF5
:100AB000838180688D8B49E150E0BE016F5F7F4F7D
:100AC00080E00E94620269960FB6F894DEBF0FBE06
:100AD000CDBFDF91CF9108958093BB0094E89093B0
:100AE000BC009091BC0097FFFCCF9091B900987F1B
:100AF00080FD05C081E0983129F080E003C081E0ED
:100B00009034D9F708950F931F93CF938C01C62F7C
:100B1000FC01808194EA9093BC009091BC0097FF07
:100B2000FCCF9091B900987F983011F0903151F539
:100B3000880F0E946C05882329F180E024E8F801E1
:100B400091A18917D0F4E80FF11D91819093BB001A
:100B50002093BC009091BC0097FFFCCF9091B9000E
:100B6000987F983241F0C1110E94100183E0CF912B
:100B70001F910F9108958F5FE2CFC1110E94100164
:100B800080E0F5CFC1110E94100182E0F0CF00009B
:100B90000000000000000000000000000000000055
:100BA00000000000000000000000000000000895A8
:100BB000CF92DF92EF92FF921F93CF93DF93EC01DE
:100BC0008C819D81892B09F45BC0EF81F88530977A
:100BD00009F456C0998580818923E9F7F89418E1D2
:100BE000C12CD12C7601EC81FD8180819E81892BE5
:100BF00080830E94C705CC0CDD1CEE1CFF1CEF811E
:100C0000F88580819985892341E050E060E070E0BB
:100C100019F440E050E0BA01C42AD52AE62AF72A9E
:100C2000EC81FD8190818E818095892380830E9453
:100C3000C7051150C1F68B81181798F4EC81FD811E
:100C400080819E81892B80830E94C705EC81FD8174
:100C500090818E818095892380830E94C7051F5FC4
:100C6000EACF7894E7FE02C0FF24FA94C701B601E8
:100C7000DF91CF911F91FF90EF90DF90CF9008957B
:100C8000C12CD12C7601F2CFEF92FF920F931F93DC
:100C9000CF93DF93EC01E881F981309749F490E03C
:100CA00080E0DF91CF911F910F91FF90EF90089519
:100CB0008A818F77808311A2A881B9819196EC9166
:100CC0009197E03248F481E08E0F91968C93919742
:100CD000EA0FFB2FF11D618360E0888199810E94FA
:100CE00083058111DCCFE880F9808A8187010E5B62
:100CF0001F4FD8011C92F701ED5BFF4F108294EA61
:100D00009093BC009091BC0097FFFCCF9091B900EC
:100D1000987F983019F0903109F063C0880F816096
:100D20000E946C05882309F45CC0D801EC9181E035
:100D30008E0F8C93F0E084EC8093BC008091BC001B
:100D400087FFFCCF8091BB00EE0DFF1D82A3F80151
:100D5000808191E0980F908390E024E82093BC007C
:100D60002091BC0027FFFCCF2091BB00E80EF91EAC
:100D7000D70192962C930E941001F8018081823055
:100D800009F08DCF88819981DC01AD5BBF4F4C911B
:100D90009C012E5B3F4FF9012081421728F521E08D
:100DA000240F2C93FC01E40FF11D22A130E0888177
:100DB0009981DC01AD5BBF4FEC91EC01CE5BDF4F65
:100DC0004881E41708F06BCF41E04E0F4C932F3F62
:100DD000320709F464CFE80FF92FF11D82A1922F99
:100DE00060CF0E9410015BCF2FEF3FEFE0CFCF929B
:100DF000DF92EF92FF920F931F93CF93DF938C01BB
:100E00006B01FB01E480F5806E2D0E94ED26D0E0A1
:100E1000C0E0FF240F5F1F4FCE15DF05BCF4F601C5
:100E200084819581C817D90778F4808191810097D2
:100E300059F08C0F9D1FFC016081C8018C0F9D1F14
:100E40000E94ED262196E8CF60E0F7CFDF91CF91A9
:100E50001F910F91FF90EF90DF90CF90089542E0A7
:100E600050E06AE671E08FE992E00C94D503CF93ED
:100E7000DF93FC0144815581608171818FE992E0AB
:100E80000E94D503EC010E942F078C0F9D1FDF915C
:100E9000CF910895FC0180819181009711F00C940D
:100EA000482560E070E0CB010895CF93DF93DC012B
:100EB00014962D913C911597232B79F0FB01CD9140
:100EC000DC9160817181CE010E94742B009729F022
:100ED0008C1B9D0BDF91CF9108958FEF9FEFFACF81
:100EE0002F923F924F925F926F927F928F929F923A
:100EF000AF92BF92CF92DF92EF92FF920F931F9328
:100F0000CF93DF9300D000D0CDB7DEB7FC01448093
:100F100055804114510409F412C1FB0164807580AD
:100F20006114710409F40BC17A016B019C838B83FA
:100F3000FA01A480B580A618B708FC0100811181D0
:100F4000A114B104B9F4F60160817181C8010E9455
:100F5000742B8C01009709F4F2C0F7016081718154
:100F6000448155810E94492BF70184819581080FA6
:100F7000191FE9CFB7FC10C0FB012080318042016E
:100F8000C801B1010E94742B009709F44EC0860D70
:100F9000971D8A0C9B1CF5CF3801F6016081718189
:100FA000C8010E94742B2C01009729F14C01801A72
:100FB000910AA401B801C3010E94492B680C791C55
:100FC000F7016081718144815581C3010E94492BE1
:100FD000F70184809580680C791CF60104811581E5
:100FE000040D151DEB81FC81848195818A0D9B1D6B
:100FF00095838483D2CFB801C3010F900F900F90D7
:101000000F90DF91CF911F910F91FF90EF90DF90A4
:10101000CF90BF90AF909F908F907F906F905F9098
:101020004F903F902F900C946D2B4814590409F465
:1010300086C0EB81FC81828193818815990578F4C3
:10104000B4016F5F7F4FC8010E948C2A009709F49A
:1010500076C0EB81FC819183808393828282EB81D5
:10106000FC81048115810150110917FD68C0380108
:10107000F601248035802114310409F460C0EB812D
:10108000FC81848095808114910409F458C08214F5
:10109000930408F454C00815190520F03401F1E058
:1010A0006F1A7108EB81FC8140805180C2010FEF03
:1010B0001FEF9201260D371D3A832983E981FA81BA
:1010C000E817F90788F0F601608171810E94742B9E
:1010D000009751F09C01241935096216730608F433
:1010E000980101968901EACF17FD29C0200E311E13
:1010F000C201820D931DA40142195309BC018A0D3E
:101100009B1D0E94522BEB81FC81848195818A0D6D
:101110009B1D9583848320813181820F931FFC0165
:101120001082EB81FC8180819181F7016081718166
:1011300044815581800F911F0E94492B94CF0F90BD
:101140000F900F900F90DF91CF911F910F91FF9013
:10115000EF90DF90CF90BF90AF909F908F907F9057
:101160006F905F904F903F902F9008950F931F9333
:10117000CF93DF93EC0188819981009759F02A8100
:101180003B812617370730F081E0DF91CF911F9127
:101190000F9108958B016F5F7F4F0E948C2A0097FB
:1011A00059F0998388831B830A832C813D81232BEB
:1011B00059F7FC011082E8CF80E0E7CFEF92FF9271
:1011C0000F931F93CF93DF936115710541F480E076
:1011D000DF91CF911F910F91FF90EF9008954115EE
:1011E0005105B1F07B01EC010C811D81040F151F2D
:1011F000B8010E94B608882351F3288139818C8177
:101200009D81B701820F931F0E946D2B1D830C835C
:1012100081E0DECFFB0144815581608171810C94B6
:10122000DE08FC0124813581232B39F421E0FB0108
:101230008081882349F020E007C0808191810E944D
:10124000642B21E0892BB9F7822F0895CF93DF9388
:10125000EC016EE971E00E941109811178C064EA25
:1012600071E0CE010E941109811176C06DE671E036
:10127000CE010E941109811174C063E771E0CE01B3
:101280000E941109811172C069E771E0CE010E94CC
:101290001109811170C06FE771E0CE010E94110940
:1012A00081116EC065E871E0CE010E9411098111C3
:1012B0006CC06BE871E0CE010E94110981116AC017
:1012C00061E971E0CE010E94110981118BC067E9CB
:1012D00071E0CE010E941109811161C06DE971E0D8
:1012E000CE010E94110981115FC063EA71E0CE0155
:1012F0000E94110981115DC069EA71E0CE010E946E
:10130000110981115BC06FEA71E0CE010E941109E1
:10131000811159C065EB71E0CE010E941109811164
:1013200057C06BEB71E0CE010E941109811155C0CD
:1013300061EC71E0CE010E941109882309F452C0CA
:101340006FEF7FEF8FEF90E0DF91CF9108956FEF18
:1013500070E080E090E0F8CF6FEF71E080E090E027
:10136000F3CF6FEF73E080E090E0EECF6FEF77E0C8
:1013700080E090E0E9CF6FEF7FE080E090E0E4CFA5
:101380006FEF7FE180E090E0DFCF6FEF7FE380E001
:1013900090E0DACF6FEF7FE780E090E0D5CF6FEF9E
:1013A0007FEF81E090E0D0CF6FEF7FEF83E090E0C0
:1013B000CBCF6FEF7FEF87E090E0C6CF6FEF7FEF8F
:1013C0008FE090E0C1CF6FEF7FEF8FE190E0BCCF77
:1013D0006FEF7FEF8FE390E0B7CF6FEF7FEF8FE797
:1013E00090E0B2CF6FEF7FEF80E090E0ADCFCF9392
:1013F000DF93EC0188819981009711F00E94032A04
:10140000198218821D821C821B821A82DF91CF9161
:101410000895CF93DF93EC0141E050E067EC71E079
:101420000E94DE08811103C0CE010E94F709CE019F
:10143000DF91CF910895EF92FF920F931F93CF9377
:10144000DF93CDB7DEB72E970FB6F894DEBF0FBE91
:10145000CDBF7C01CB01BA012AE08E010F5F1F4F87
:10146000A8010E947A25F80101900020E9F7319740
:10147000AF01401B510BB801C7010E94DE0881116A
:1014800003C0C7010E94F709C7012E960FB6F89452
:10149000DEBF0FBECDBFDF91CF911F910F91FF90A7
:1014A000EF900895EF92FF920F931F93CF93DF93E6
:1014B000CDB7DEB728970FB6F894DEBF0FBECDBF0D
:1014C0007C01CB014AE08E010F5F1F4FB8010E94E3
:1014D0006F25F80101900020E9F73197AF01401B1B
:1014E000510BB801C7010E94DE08811103C0C7017A
:1014F0000E94F709C70128960FB6F894DEBF0FBE09
:10150000CDBFDF91CF911F910F91FF90EF90089584
:10151000CF93DF93EC01FB014481558160817181A0
:101520000E94DE08811103C0CE010E94F709CE019E
:10153000DF91CF910895EF92FF920F931F93CF9376
:10154000DF93EC017B018A01BA010E94B608811188
:101550000BC0CE010E94F709CE01DF91CF911F9100
:101560000F91FF90EF9008951D830C83B701888140
:1015700099810E946D2BF0CFEF92FF920F931F93F2
:10158000CF93DF93CDB7DEB7A2970FB6F894DEBF47
:101590000FBECDBF8C01CB01BA01F80111821082C0
:1015A00013821282158214822AE0AE014F5F5F4FD0
:1015B0007A010E947A25F70101900020E9F731971E
:1015C000AF014E195F09B701C8010E949B0AA2969C
:1015D0000FB6F894DEBF0FBECDBFDF91CF911F9144
:1015E0000F91FF90EF900895CF93DF93EC01FB01F3
:1015F0008617970749F0608171816115710541F087
:10160000448155810E949B0ACE01DF91CF910895BC
:101610000E94F709F9CFFC01118210821382128215
:10162000158214820C94F40AFC0111821082138238
:10163000128215821482FB0101900020E9F7319794
:10164000AF01461B570B0C949B0A6F927F928F92AF
:101650009F92AF92BF92CF92DF92EF92FF920F9341
:101660001F93CF93DF93CDB7DEB74C015B016DB60F
:101670007EB6CB010E94E526082F10E0C801019636
:101680002DB73EB7281B390B0FB6F8943EBF0FBEDF
:101690002DBF8DB79EB701966C0175015C019FEF60
:1016A000E91AF90AC5018C199D09801791073CF4C4
:1016B000C7010E94E526F50181935F01F0CFF60195
:1016C000E00FF11F1082B601C4010E94140BC40187
:1016D0000FB6F8947EBE0FBE6DBEDF91CF911F9105
:1016E0000F91FF90EF90DF90CF90BF90AF909F90C1
:1016F0008F907F906F9008956F927F928F929F92BC
:10170000AF92BF92CF92DF92EF92FF920F931F930F
:10171000CF93DF93EC018B01DB011496AD90BC906D
:101720007501B1E0EB1AF108EFEFFFEF912C812C7E
:1017300090E080E070E060E0E816F9062CF12617F2
:10174000370734F1DC0111966D018A159B0560F4B1
:10175000D8016D907C906114710431F0D301A80F11
:10176000B91F5C91451719F0E816F90659F46F5F37
:101770007F4F4F01BFEF8B1A9B0AF601E816F9065F
:1017800009F0FC01C601D8CF261737070CF048C076
:101790006F01E815F90510F064014F016CE671E086
:1017A000CE010E94140BF801E480F580CE14DF0412
:1017B00018F58E149F0408F47401D8016D917C9182
:1017C000FB01EE0DFF1DB08010826C0D7D1D6115BB
:1017D000710511F1FB0101900020E9F73197AF018C
:1017E000461B570BCE010E949B0AF8018081918114
:1017F000E80EF91ED701BC92CE01DF91CF911F9167
:101800000F91FF90EF90DF90CF90BF90AF909F909F
:101810008F907F906F900895CE010E94F709E5CFD9
:101820006CE671E0CE010E94140BE6CF0F931F937C
:10183000CF93DF93EC018B016CE671E00E94140BF7
:101840006CE671E0CE0106960E94140B4FEF5FE745
:1018500060E070E04C875D876E877F87488B598B8F
:101860006A8B7B8B84E690E0A0E0B0E08C8B9D8B54
:10187000AE8BBF8B1D8E1C8E8AE090E099A388A34F
:101880008FEF9FEFAFEFB0E08AA39BA3ACA3BDA304
:1018900019A618A61BA61AA61DA61CA688E1E4E395
:1018A000F1E0DE019E9601900D928A95E1F7DE014E
:1018B000AA5BBF4F88E1E4E3F1E001900D928A95C5
:1018C000E1F7FE01E25AFF4F108211821282138269
:1018D00034964083518362837383349610821182DD
:1018E0001282138234964083518362837383B801DA
:1018F000CE01DF91CF911F910F910C94F40AFC015E
:1019000080819181009711F00C94032A0895EF9241
:10191000FF920F931F93CF93DF93CDB7DEB76297FC
:101920000FB6F894DEBF0FBECDBF8C0169EC71E03D
:10193000CE0101960E94140BBE016F5F7F4FC8015C
:101940000E9455077C01CE0101960E947F0CF7FC96
:101950009FC0B801CE0101960E940B0B30E020E041
:101960004CE2BE016F5F7F4FCE010D960E947C0B53
:10197000CE0101960E947F0C6CE671E0CE010196CB
:101980000E94140B69EC71E0CE0107960E94140BC3
:10199000AE014F5F5F4FBE01695F7F4FCE010D9675
:1019A0000E947007CE0107960E947F0CCE0101961F
:1019B0000E947F0CBE01635F7F4FCE0107960E949D
:1019C0000B0B30E020E04DE2BE01695F7F4FCE019E
:1019D00001960E947C0BCE0101960E944A077093EB
:1019E000F8036093F703CE0101960E947F0CCE01AD
:1019F00007960E947F0CBE01635F7F4FCE01079662
:101A00000E940B0B21E030E04DE2BE01695F7F4F89
:101A1000CE0101960E947C0BCE0101960E944A07DE
:101A200070938A0360938903CE0101960E947F0C14
:101A3000CE0107960E947F0CBE01635F7F4FCE01EF
:101A400007960E940B0B22E030E04DE2BE01695F79
:101A50007F4FCE0101960E947C0BCE0101960E9421
:101A60004A0770931C0360931B03CE0101960E94EA
:101A70007F0CCE0107960E947F0CBE01635F7F4FF3
:101A800082ED90E00E94F706CE010D960E947F0C39
:101A900062960FB6F894DEBF0FBECDBFDF91CF9137
:101AA0001F910F91FF90EF900895EF92FF920F9387
:101AB0001F93CF93DF93CDB7DEB762970FB6F8943D
:101AC000DEBF0FBECDBF8C0161ED71E0CE0101968E
:101AD0000E94140BBE016F5F7F4FC8010E94550723
:101AE0007C01CE0101960E947F0CF7FC9FC0B801DB
:101AF000CE0101960E940B0B30E020E04CE2BE01CB
:101B00006F5F7F4FCE010D960E947C0BCE01019638
:101B10000E947F0C6CE671E0CE0101960E94140BCE
:101B200061ED71E0CE0107960E94140BAE014F5F8C
:101B30005F4FBE01695F7F4FCE010D960E94700717
:101B4000CE0107960E947F0CCE0101960E947F0C69
:101B5000BE01635F7F4FCE0107960E940B0B30E002
:101B600020E04DE2BE01695F7F4FCE0101960E94E9
:101B70007C0BCE0101960E944A077093F603609396
:101B8000F503CE0101960E947F0CCE0107960E94BC
:101B90007F0CBE01635F7F4FCE0107960E940B0B47
:101BA00021E030E04DE2BE01695F7F4FCE0101963A
:101BB0000E947C0BCE0101960E944A077093880315
:101BC00060938703CE0101960E947F0CCE01079699
:101BD0000E947F0CBE01635F7F4FCE0107960E947B
:101BE0000B0B22E030E04DE2BE01695F7F4FCE017A
:101BF00001960E947C0BCE0101960E944A077093C9
:101C00001A0360931903CE0101960E947F0CCE0146
:101C100007960E947F0CBE01635F7F4F88EC90E0C7
:101C20000E94F706CE010D960E947F0C62960FB6B9
:101C3000F894DEBF0FBECDBFDF91CF911F910F9102
:101C4000FF90EF900895CF92DF92EF92FF920F9363
:101C50001F93CF93DF93CDB7DEB72C970FB6F894D1
:101C6000DEBF0FBECDBF8C017B016A01CE010196A4
:101C70000E940B0B30E020E04DE2BE016F5F7F4F12
:101C8000CE0107960E947C0BCE0107960E944A0760
:101C9000F801EA5BFF4F6083718382839383CE01F7
:101CA00007960E947F0CCE0101960E947F0CB7011F
:101CB000CE0101960E940B0B21E030E04DE2BE0107
:101CC0006F5F7F4FCE0107960E947C0BCE01079677
:101CD0000E944A07F801E65BFF4F608371838283AD
:101CE0009383CE0107960E947F0CCE0101960E943D
:101CF0007F0CB701CE0101960E940B0B22E030E071
:101D00004DE2BE016F5F7F4FCE0107960E947C0BB4
:101D1000CE0107960E944A07F801E25BFF4F6083FD
:101D2000718382839383CE0107960E947F0CCE013C
:101D300001960E947F0CB701CE0101960E940B0B09
:101D400023E030E04DE2BE016F5F7F4FCE0107968A
:101D50000E947C0BCE0107960E944A07F801EE5ABA
:101D6000FF4F6083718382839383CE0107960E9425
:101D70007F0CCE0101960E947F0CB701CE01019627
:101D80000E940B0B24E030E04DE2BE016F5F7F4FFD
:101D9000CE0107960E947C0BCE0107960E944A074F
:101DA000F801EA5AFF4F6083718382839383CE01E7
:101DB00007960E947F0CCE0101960E947F0CB7010E
:101DC000CE0101960E940B0B25E030E04DE2BE01F2
:101DD0006F5F7F4FCE0107960E947C0BCE01079666
:101DE0000E944A07F801E65AFF4F6083718382839D
:101DF0009383CE0107960E947F0CCE0101960E942C
:101E00007F0CB701C6010E94F7062C960FB6F89416
:101E1000DEBF0FBECDBFDF91CF911F910F91FF901D
:101E2000EF90DF90CF900895EF92FF920F931F9362
:101E3000CF93DF93CDB7DEB72C970FB6F894DEBF04
:101E40000FBECDBF7C018B01CE0107960E94250BF2
:101E5000BE01695F7F4FCE0101960E940B0BA80166
:101E6000BE016F5F7F4FC7010E94230ECE01019616
:101E70000E947F0CCE0107960E947F0C2C960FB615
:101E8000F894DEBF0FBECDBFDF91CF911F910F91B0
:101E9000FF90EF900895CF92DF92EF92FF920F9311
:101EA0001F93CF93DF93CDB7DEB72C970FB6F8947F
:101EB000DEBF0FBECDBF8C017B016A01CE01019652
:101EC0000E940B0B30E020E04DE2BE016F5F7F4FC0
:101ED000CE0107960E947C0BCE0107960E944A070E
:101EE000F801E25AFF4F6083718382839383CE01AE
:101EF00007960E947F0CCE0101960E947F0CB701CD
:101F0000CE0101960E940B0B21E030E04DE2BE01B4
:101F10006F5F7F4FCE0107960E947C0BCE01079624
:101F20000E944A07F801EE59FF4F60837183828354
:101F30009383CE0107960E947F0CCE0101960E94EA
:101F40007F0CB701CE0101960E940B0B22E030E01E
:101F50004DE2BE016F5F7F4FCE0107960E947C0B62
:101F6000CE0107960E944A07F801EA59FF4F6083A5
:101F7000718382839383CE0107960E947F0CCE01EA
:101F800001960E947F0CB701CE0101960E940B0BB7
:101F900023E030E04DE2BE016F5F7F4FCE01079638
:101FA0000E947C0BCE0107960E944A07F801E65971
:101FB000FF4F6083718382839383CE0107960E94D3
:101FC0007F0CCE0101960E947F0CB701C6010E94D2
:101FD000F7062C960FB6F894DEBF0FBECDBFDF918B
:101FE000CF911F910F91FF90EF90DF90CF900895C8
:101FF000EF92FF920F931F93CF93DF93CDB7DEB78E
:102000002C970FB6F894DEBF0FBECDBF7C018B01BD
:10201000CE0107960E94250BBE01695F7F4FCE015E
:1020200001960E940B0BA801BE016F5F7F4FC70195
:102030000E944B0FCE0101960E947F0CCE010796A5
:102040000E947F0C2C960FB6F894DEBF0FBECDBF5A
:10205000DF91CF911F910F91FF90EF900895AF9274
:10206000BF92CF92DF92EF92FF920F931F93CF9385
:10207000DF93CDB7DEB762970FB6F894DEBF0FBE21
:10208000CDBF6C015B016CE671E0CE010D960E9444
:10209000140B750110E000E00530110509F445C08E
:1020A000F7014081518162817381CE0107960E94C0
:1020B000BC0ABE01695F7F4FCE0101960E940B0BE7
:1020C000CE0101960E94090ABC01CE010D960E9424
:1020D0000A09CE0101960E947F0CCE0107960E944C
:1020E0007F0C0F5F1F4FF4E0EF0EF11C063011055F
:1020F00099F6BE01635F7F4FC6010E940B0BCE01B4
:102100000D960E947F0CC60162960FB6F894DEBF52
:102110000FBECDBFDF91CF911F910F91FF90EF9038
:10212000DF90CF90BF90AF900895F5014489558915
:1021300066897789CE0101960E94BC0ABE016F5F55
:102140007F4FCE010D960E940A09CE010196C7CF9E
:10215000AF92BF92CF92DF92EF92FF920F931F93B5
:10216000CF93DF93CDB7DEB762970FB6F894DEBF9B
:102170000FBECDBF6C015B016CE671E0CE010D9628
:102180000E94140B750110E000E00330110509F402
:1021900045C0F7014081518162817381CE0107966C
:1021A0000E94BC0ABE01695F7F4FCE0101960E946A
:1021B0000B0BCE0101960E94090ABC01CE010D96BF
:1021C0000E940A09CE0101960E947F0CCE0107965B
:1021D0000E947F0C0F5F1F4FF4E0EF0EF11C0430E4
:1021E000110599F6BE01635F7F4FC6010E940B0B7C
:1021F000CE010D960E947F0CC60162960FB6F89430
:10220000DEBF0FBECDBFDF91CF911F910F91FF9029
:10221000EF90DF90CF90BF90AF900895F501448587
:10222000558566857785CE0101960E94BC0ABE0160
:102230006F5F7F4FCE010D960E940A09CE01019675
:10224000C7CF0F931F93CF93DF93CDB7DEB76697BA
:102250000FB6F894DEBF0FBECDBF8B01FE013196E5
:102260002CE0DF011D922A95E9F7DC011C964D91C7
:102270005D916D917C911F974D835E836F8378870D
:102280004D875E876F87788BA25ABF4F1D921D9234
:102290001D921C92139714964D935D936D937C93AE
:1022A000139714961D921D921D921C921397865996
:1022B0009F4FDC014D935D936D937C931397BF010A
:1022C000CE0141960E94A810BE016F5E7F4FC801EB
:1022D0000E94F706CE0141960E947F0C66960FB6CB
:1022E000F894DEBF0FBECDBFDF91CF911F910F914C
:1022F0000895CF93DF9300D000D000D0CDB7DEB7E4
:1023000064E58FEF93E00E94ED2690E080E00E946C
:10231000451F8CE390E00E94451F8EE190E00E94F3
:10232000451F68ED71E0CE0101960E94140BBE01BD
:102330006F5F7F4F88EC90E00E94F706CE01019618
:102340000E947F0C6EED71E0CE0101960E94140B8D
:10235000BE016F5F7F4F82ED90E00E94F706CE01D5
:1023600001960E947F0C6AE570E08FEE92E00E9479
:10237000211168E770E08DE593E00E94211166E984
:1023800070E08BEC93E00E94211188E198E00FB699
:10239000F894A895809360000FBE90936000FFCFE3
:1023A000EF92FF920F931F93CF93DF93CDB7DEB7DA
:1023B0002C970FB6F894DEBF0FBECDBF8C017A010B
:1023C0006A5B7F4FCE0107960E942F10B701CE01A6
:1023D00001960E940B0BBE01695F7F4FCE010196F3
:1023E0000E94880ABC01C8010E940B0BCE01019615
:1023F0000E947F0CCE0107960E947F0CC8012C968C
:102400000FB6F894DEBF0FBECDBFDF91CF911F9105
:102410000F91FF90EF900895EF92FF920F931F930B
:10242000CF93DF93CDB7DEB72C970FB6F894DEBF0E
:102430000FBECDBF8C017A01625A7F4FCE01079645
:102440000E94A810B701CE0101960E940B0BBE019D
:10245000695F7F4FCE0101960E94880ABC01C801C6
:102460000E940B0BCE0101960E947F0CCE010796B5
:102470000E947F0CC8012C960FB6F894DEBF0FBEE9
:10248000CDBFDF91CF911F910F91FF90EF900895F5
:102490002F923F924F925F926F927F928F929F9274
:1024A000AF92BF92CF92DF92EF92FF920F931F9362
:1024B000CF93DF93CDB7DEB7EC970FB6F894DEBFBE
:1024C0000FBECDBF1C01DC015C968D919C915D9788
:1024D000892B09F07DC29696ED90FC90D701ED9185
:1024E000FC91309709F018C290E080E02C01712C2B
:1024F000612C4DA65EA66FA678AAD1015C968D913F
:102500009C915D97019751F55E96ED90FC90C70107
:102510000E94D805F701C284D384E484F584DC01E9
:10252000CB018C199D09AE09BF09F101C2A0D3A04E
:10253000E4A0F5A0C816D906EA06FB062CF4D701DC
:10254000C6010197A109B1098DA79EA7AFA7B8AB96
:10255000B7FF04C01DA61EA61FA618AAD1019A96F1
:102560008D919C919B970197A1F41C968D919D91C3
:102570000D90BC91A02D2C013D018DA49EA4AFA473
:10258000B8A8481859086A087B084DA65EA66FA629
:1025900078AAD1019C968D919C91019709F022C255
:1025A00064EE71E0C1010E941109882309F415C28B
:1025B0006DA57EA58FA598A90E94EC256B017C01D5
:1025C0008091620481110BC0C0925E04D0925F04BE
:1025D000E0926004F092610481E080936204809054
:1025E0005A0490905B04A0905C04B0905D04A50137
:1025F000940160E070E080E89FE30E944C27209106
:102600005E0430915F0440916004509161040E9427
:1026100027262B013C01A5019401C701B6010E94A8
:1026200027269B01AC01C301B2010E944D27609394
:102630005E0470935F0480936004909361040E9431
:10264000B9276B017C0167EE71E0C1010E9411099D
:10265000882309F449C0C701B6010E94EC256B012B
:102660007C018091500481110BC0C0924C04D09227
:102670004D04E0924E04F0924F0481E080935004A8
:102680008090480490904904A0904A04B0904B0474
:10269000A501940160E070E080E89FE30E944C2770
:1026A00020914C0430914D0440914E0450914F04C0
:1026B0000E9427262B013C01A5019401C701B60108
:1026C0000E9427269B01AC01C301B2010E944D2745
:1026D00060934C0470934D0480934E0490934F0488
:1026E0000E94B9276B017C0165ED71E0C1010E9478
:1026F0001109882309F449C0C701B6010E94EC25DD
:102700006B017C018091590481110BC0C09255046A
:10271000D0925604E0925704F092580481E08093DE
:1027200059048090510490905204A0905304B090AA
:102730005404A501940160E070E080E89FE30E94EA
:102740004C272091550430915604409157045091E4
:1027500058040E9427262B013C01A5019401C701C2
:10276000B6010E9427269B01AC01C301B2010E9461
:102770004D276093550470935604809357049093AB
:1027800058040E94B9276B017C01F101EA59FF4FFF
:102790004081518162817381389780819181A281CA
:1027A000B38184179507A607B70714F4DB01CA01A4
:1027B000F101E659FF4F80809180A280B380389765
:1027C000408151816281738184169506A606B70601
:1027D00014F4B501A4012A013B01481A590A6A0AF6
:1027E0007B0A4DA25EA26FA278A6F1016088718873
:1027F0008288938869AA7AAA8BAA9CAA4DA05EA017
:102800006FA078A414141504160417040CF0EFC07C
:10281000F82FE92F3A2F2B2F8C159D05AE05BF05FC
:1028200024F4FC2DED2D3E2D2F2D4F2E5E2E632EEC
:10283000722E441555056605770514F42A013B01EF
:10284000481A590A6A0A7B0A8DA09EA0AFA0B8A4B4
:10285000BB0C8808982C540189A69AA6ABA6BCA6E6
:10286000C301B20129A93AA94BA95CA90E94462833
:10287000ADA0BEA0CFA0D8A4E9A4FE2C0E2D1E2D85
:102880000E94B3282DAB3EAB4FAB58AFC301B20192
:1028900024E630E040E050E00E9446280E94B32841
:1028A000C22ED32EE42EF52EF10186A597A5A0A960
:1028B000B1A9EA5BFF4F8C159D05AE05BF050CF075
:1028C000A9C1F101EE5BFF4F80819181A281B381AB
:1028D000C816D906EA06FB060CF099C1A101425DB3
:1028E0005F4F21E0822F90E0BC01660F771F660FDB
:1028F000771FFA01E60FF71F4080518062807380D6
:1029000049AE5AAE6BAE7CAE4C145D046E047F04CF
:102910000CF075C02F5FE6CFD10198962C91243032
:1029200008F0E2CDD70112969C9112979F77908381
:1029300011A20D90BC91A02D9196EC919197E0324F
:1029400050F491E09E0F91969C939197EA0FFB2F84
:10295000F11D91E09183F701A081B1819196EC91F5
:102960009197E03278F491E09E0F91969C93919725
:10297000EA0FFB2FF11D2295207F80E4820F90E06B
:1029800089688183F701A081B1819196EC9191973B
:10299000E03250F481E08E0F91968C939197EA0F7C
:1029A000FB2FF11D83EE818361E0D7018D919C9116
:1029B0000E948305811198CD61E0C7010E94440601
:1029C00097FFFACF60E0C7010E9444069F778ECD43
:1029D0001DA61EA61FA618AA90CDCDA4DEA4EFA406
:1029E000F8A831CECDA4DEA4EFA4F8A8CECE1DAABF
:1029F0001EAA1FAA18AEC12CD12C760155CF910169
:102A00002A5B3F4F620F731FDB018D909D90AD904D
:102A1000BC9049AC5AAC6BAC7CACC414D504E60495
:102A2000F70409F444C08150904C880F991F880F17
:102A3000991FDA01A80FB91F4D905D906D907C90A1
:102A40004DA25EA26FA278A6820F931FDC010D91AA
:102A50001D912D913C9109A71AA72BA73CA7A7016F
:102A600096012419350946095709C501B40149A43D
:102A70005AA46BA47CA464197509860997090E945D
:102A8000EF2729AD3AAD4BAD5CAD6DA07EA08FA018
:102A900098A426193709480959090E94212889A4B0
:102AA0009AA4ABA4BCA4820E931EA41EB51E6AEE0B
:102AB00071E0CE014F960E94140B6CEE71E0CE01D6
:102AC00049960E94140BB101CE0143960E940B0B54
:102AD000B701A601CE0101960E94BC0ABE01615E4B
:102AE0007F4FCE0101960E94880AB501A4010E9481
:102AF0001B0ABE01615E7F4F0E94880A4DA55EA53C
:102B00006FA578A90E941B0ABE01615E7F4F0E94DB
:102B1000880A4DA95EA96FA978AD0E941B0ABE0163
:102B2000675E7F4F0E94880ABC01CE010D960E940D
:102B30000B0BCE0101960E947F0CBE016D5E7F4F94
:102B4000CE0101960E940B0BBE01635F7F4FCE0149
:102B500001960E94880ABC01CE0107960E940B0BC9
:102B6000CE0101960E947F0CBE01695F7F4FC101BB
:102B700006960E94F40AC501B40129A93AA94BA9F5
:102B80005CA90E944628E4E6AE2EB12CC12CD12CC3
:102B9000E12CF12C00E010E00E94B328D1015896FE
:102BA0002C93589759963C9359975A964C935A9709
:102BB0005B965C93CE0107960E947F0CCE010D962A
:102BC0000E947F0CCE0143960E947F0CCE01499655
:102BD0000E947F0CCE014F960E947F0CEC960FB6A0
:102BE000F894DEBF0FBECDBFDF91CF911F910F9143
:102BF000FF90EF90DF90CF90BF90AF909F908F901D
:102C00007F906F905F904F903F902F900895F101CB
:102C1000E65AFF4F80809180A280B38048CF4F92C8
:102C20005F926F927F928F929F92AF92BF92CF925C
:102C3000DF92EF92FF920F931F93CF93DF93CDB765
:102C4000DEB7C854D1090FB6F894DEBF0FBECDBFB2
:102C50008FE992E00E948E04181619060CF084C5C4
:102C60006CE671E0CE01C7960E94140B0E942A0404
:102C700097FD0FC08A30910561F089831A8241E087
:102C800050E0BE016F5F7F4FCE01C7960E94DE0805
:102C9000EDCF6EEE71E0CE0101960E94140BBE01E5
:102CA0006F5F7F4FCE01C7960E9455078C01CE0102
:102CB00001960E947F0C17FD16C010E000E060E056
:102CC000C8010E94ED260F5F1F4F011584E0180711
:102CD000B1F744E050E06AEF71E08FE992E00E94C2
:102CE000D5030E942F07BE01695C7F4FCE01079676
:102CF0000E940B0B6FEF71E0CE0101960E94140B46
:102D0000BE016F5F7F4FCE0107960E9455078C0171
:102D1000CE0101960E947F0C17FF0E947911CE010F
:102D200007960E947F0CBE01695C7F4FCE010D9615
:102D30000E940B0B6BE072E0CE0101960E94140B17
:102D4000BE016F5F7F4FCE010D960E9455078C012B
:102D5000CE0101960E947F0C17FD33C064E172E042
:102D6000CE0107960E94140B00911E0110E0E09026
:102D70001501F12CC0900C01D12CBE01695F7F4F71
:102D8000CE0101960E940B0BB601CE0101960E9466
:102D9000520A6CE374E00E94880AB7010E94520A4A
:102DA0006CE374E00E94880AB8010E94520A0E94F3
:102DB0003707CE0101960E947F0CCE0107960E9434
:102DC0007F0CCE010D960E947F0CBE01695C7F4F87
:102DD000CE018B960E940B0B6BE172E0CE01019647
:102DE0000E94140BBE016F5F7F4FCE018B960E9435
:102DF00055078C01CE0101960E947F0C17FD66C01D
:102E000062E272E0CE014F960E94140BAE01415E69
:102E10005F4F6FEE72E0CE0185960E94D01168E29E
:102E200072E0CE0143960E94140BAE014D5E5F4FDF
:102E30006DE573E0CE0149960E94D0116EE272E01A
:102E4000CE0101960E94140BAE014F5F5F4F6BECF9
:102E500073E0CE0107960E94D011BE01695F7F4FDB
:102E6000CE010D960E940B0B62E474E0CE010D962C
:102E70000E94880ABE01675E7F4F0E94880A62E452
:102E800074E00E94880ABE016B5D7F4F0E94880A31
:102E90000E943707CE010D960E947F0CCE01079647
:102EA0000E947F0CCE0101960E947F0CCE014996B4
:102EB0000E947F0CCE0143960E947F0CCE01859626
:102EC0000E947F0CCE014F960E947F0CCE018B9604
:102ED0000E947F0CBE01695C7F4FCE010D960E945F
:102EE0000B0B64E372E0CE0101960E94140BBE014D
:102EF0006F5F7F4FCE010D960E9455078C01CE016A
:102F000001960E947F0C17FD36C061ED71E0CE0185
:102F100007960E94140B0091190310911A03E09078
:102F20008703F0908803C090F503D090F603BE01AC
:102F3000695F7F4FCE0101960E940B0BB601CE0157
:102F400001960E94520A6CE374E00E94880AB7015D
:102F50000E94520A6CE374E00E94880AB8010E9441
:102F6000520A0E943707CE0101960E947F0CCE01C3
:102F700007960E947F0CCE010D960E947F0CBE0129
:102F8000695C7F4FCE010D960E940B0B60E472E0EE
:102F9000CE0101960E94140BBE016F5F7F4FCE01E0
:102FA0000D960E9455078C01CE0101960E947F0C60
:102FB00017FD36C069EC71E0CE0107960E94140B34
:102FC00000911B0310911C03E0908903F0908A0389
:102FD000C090F703D090F803BE01695F7F4FCE0128
:102FE00001960E940B0BB601CE0101960E94520A77
:102FF0006CE374E00E94880AB7010E94520A6CE3F5
:1030000074E00E94880AB8010E94520A0E943707A1
:10301000CE0101960E947F0CCE0107960E947F0C84
:10302000CE010D960E947F0CBE01695C7F4FCE01E0
:10303000C1960E940B0B6AE472E0CE0101960E94D9
:10304000140BBE016F5F7F4FCE01C1960E945507E2
:103050008C01CE0101960E947F0C17FD72C06CEEB0
:1030600071E0CE018B960E94140B62E572E0CE01F6
:103070004F960E94140BAE01415E5F4F6FEE72E0FF
:10308000CE0185960E940C1269E572E0CE0143964E
:103090000E94140BAE014D5E5F4F6DE573E0CE01F3
:1030A00049960E940C1260E672E0CE0101960E94E1
:1030B000140BAE014F5F5F4F6BEC73E0CE010796D0
:1030C0000E940C12BE01695F7F4FCE010D960E94D7
:1030D0000B0BBE01655D7F4FCE010D960E94880AE5
:1030E000BE01675E7F4F0E94880ABE01655D7F4F0B
:1030F0000E94880ABE016B5D7F4F0E94880A0E9471
:103100003707CE010D960E947F0CCE0107960E94D4
:103110007F0CCE0101960E947F0CCE0149960E9441
:103120007F0CCE0143960E947F0CCE0185960E94B3
:103130007F0CCE014F960E947F0CCE018B960E9491
:103140007F0CCE01C1960E947F0CBE01695C7F4F4F
:10315000CE010D960E940B0B67E672E0CE01019640
:103160000E94140BBE016F5F7F4FCE010D960E942F
:1031700055078C01CE0101960E947F0C17FD93C06C
:103180006FE672E0CE0107960E94140B8091230136
:1031900090912401A0912501B091260121968CAF38
:1031A0009DAFAEAFBFAF219780911F0190912001DD
:1031B000A0912101B091220125968CAF9DAFAEAFB9
:1031C000BFAF259780911A0190911B01A0911C011E
:1031D000B0911D0129968CAF9DAFAEAFBFAF2997BF
:1031E000C0901601D0901701E0901801F0901901DD
:1031F0008090110190901201A0901301B0901401E1
:1032000040900D0150900E0160900F0170901001E0
:10321000BE01695F7F4FCE0101960E940B0BB30187
:10322000A201CE0101960E941B0A6CE374E00E9489
:10323000880AB501A4010E941B0A6CE374E00E9495
:10324000880AB701A6010E941B0A6CE374E00E9481
:10325000880A29964CAD5DAD6EAD7FAD29970E9471
:103260001B0A6CE374E00E94880A25964CAD5DADA4
:103270006EAD7FAD25970E941B0A6CE374E00E943F
:10328000880A21964CAD5DAD6EAD7FAD21970E9451
:103290001B0A0E943707CE0101960E947F0CCE01C7
:1032A00007960E947F0CCE010D960E947F0C62E271
:1032B00072E0CE0101960E94140BBE016F5F7F4F3A
:1032C000CE01C7960E9455078C01CE0101960E943F
:1032D0007F0C17FD3DC0BE01695C7F4FCE010D968E
:1032E0000E940B0B6CE671E0CE0101960E94140B5C
:1032F00062E272E0CE0107960E94140BAE014F5FAE
:103300005F4FBE01695F7F4FCE010D960E9470072F
:10331000CE0107960E947F0CCE0101960E947F0C81
:10332000BE01635F7F4FCE0101960E940B0B50E000
:1033300040E0BE016F5F7F4F8FEE92E00E94230E50
:10334000CE0101960E947F0CCE010D960E947F0C4B
:1033500068E272E0CE0101960E94140BBE016F5F1D
:103360007F4FCE01C7960E9455078C01CE01019672
:103370000E947F0C17FD3DC0BE01695C7F4FCE01EE
:103380000D960E940B0B6CE671E0CE0101960E9437
:10339000140B68E272E0CE0107960E94140BAE0196
:1033A0004F5F5F4FBE01695F7F4FCE010D960E9458
:1033B0007007CE0107960E947F0CCE0101960E94F5
:1033C0007F0CBE01635F7F4FCE0101960E940B0B05
:1033D0004CE350E0BE016F5F7F4F8DE593E00E94AC
:1033E000230ECE0101960E947F0CCE010D960E9405
:1033F0007F0C6EE272E0CE0101960E94140BBE01BA
:103400006F5F7F4FCE01C7960E9455078C01CE019A
:1034100001960E947F0C17FD3DC0BE01695C7F4F85
:10342000CE010D960E940B0B6CE671E0CE01019669
:103430000E94140B6EE272E0CE0107960E94140BFC
:10344000AE014F5F5F4FBE01695F7F4FCE010D96AA
:103450000E947007CE0107960E947F0CCE01019654
:103460000E947F0CBE01635F7F4FCE0101960E94D8
:103470000B0B4EE150E0BE016F5F7F4F8BEC93E092
:103480000E94230ECE0101960E947F0CCE010D9664
:103490000E947F0C65E772E0CE0101960E94140B3A
:1034A000BE016F5F7F4FCE01C7960E9455078C010A
:1034B000CE0101960E947F0C17FD12C06AE570E0F4
:1034C0008FEE92E00E94211168E770E08DE593E0B5
:1034D0000E94211166E970E08BEC93E00E942111BB
:1034E00062E572E0CE0101960E94140BBE016F5F8F
:1034F0007F4FCE01C7960E945507F12C97FD2AC039
:1035000069E572E0CE0107960E94140BBE01695F67
:103510007F4FCE01C7960E945507F12C97FD16C02C
:1035200060E672E0CE010D960E94140BBE01635F4F
:103530007F4FCE01C7960E9455079095F92EFF1C2C
:10354000FF24FF1CCE010D960E947F0CCE01079632
:103550000E947F0CCE0101960E947F0CFF2009F48F
:10356000E1C0BE01695C7F4FCE0101960E940B0B4A
:1035700030E020E04CE2BE016F5F7F4FCE01499604
:103580000E947C0BCE0101960E947F0C6CE671E0DC
:10359000CE0101960E94140B60E672E0CE01079600
:1035A0000E94140BAE014F5F5F4FBE01695F7F4FFA
:1035B000CE0149960E947007CE0107960E947F0CAB
:1035C000CE0101960E947F0CBE01675E7F4FCE0147
:1035D00001960E940B0B46E950E0BE016F5F7F4FE2
:1035E0008BEC93E00E944B0FCE0101960E947F0C62
:1035F000BE01695C7F4FCE0101960E940B0B21E05A
:1036000030E04CE2BE016F5F7F4FCE0143960E94D7
:103610007C0BCE0101960E947F0C6CE671E0CE011E
:1036200001960E94140B69E572E0CE0107960E9494
:10363000140BAE014F5F5F4FBE01695F7F4FCE013C
:1036400043960E947007CE0107960E947F0CCE0120
:1036500001960E947F0CBE016D5E7F4FCE010196E8
:103660000E940B0B48E750E0BE016F5F7F4F8DE576
:1036700093E00E944B0FCE0101960E947F0CBE0189
:10368000695C7F4FCE0101960E940B0B22E030E077
:103690004CE2BE016F5F7F4FCE010D960E947C0B06
:1036A000CE0101960E947F0C6CE671E0CE0101967E
:1036B0000E94140B62E572E0CE0107960E94140B83
:1036C000AE014F5F5F4FBE01695F7F4FCE010D9628
:1036D0000E947007CE0107960E947F0CCE010196D2
:1036E0000E947F0CBE01635F7F4FCE0101960E9456
:1036F0000B0B4AE550E0BE016F5F7F4F8FEE92E00B
:103700000E944B0FCE0101960E947F0CCE010D96B8
:103710000E947F0CCE0143960E947F0CCE014996F9
:103720000E947F0CBE01695C7F4FCE0101960E9412
:103730000B0BCE0101960E94550DCE0101960E9401
:103740007F0CBE01695C7F4FCE0101960E940B0B7E
:10375000CE0101960E94870CCE0101960E947F0C3B
:10376000CE01C7960E947F0C6CE671E0CE010796F1
:103770000E94140B80910C01D12CC12C8823C9F01C
:103780008BEC93E00E944812C090E303D090E403D6
:1037900061ED73E0CE0101960E940B0BBE016F5FDD
:1037A0007F4FCE0107960E940A09CE0101960E9422
:1037B0007F0C80911501F12CE12C8823C9F08DE557
:1037C00093E00E944812E0907503F090760363E660
:1037D00073E0CE0101960E940B0BBE016F5F7F4F1D
:1037E000CE0107960E940A09CE0101960E947F0C25
:1037F00080911E0110E000E08823C9F08FEE92E076
:103800000E944812009107031091080365EF72E0CF
:10381000CE0101960E940B0BBE016F5F7F4FCE0160
:1038200007960E940A09CE0101960E947F0CD7FEDE
:1038300004C0CC24CA949FE7D92ED092CB04C09266
:10384000CA04F7FE04C0EE24EA948FE7F82EF09243
:10385000CD04E092CC0417FF02C00FEF1FE71093D6
:10386000CF040093CE040E94550383E00E94880297
:10387000882321F0CE0107960E943707CE010796D4
:103880000E947F0CC85BDF4F0FB6F894DEBF0FBEFF
:10389000CDBFDF91CF911F910F91FF90EF90DF90FF
:1038A000CF90BF90AF909F908F907F906F905F90E0
:1038B0004F9008951F920F920FB60F9211242F93DD
:1038C0003F938F939F93AF93BF9380919B0290916F
:1038D0009C02A0919D02B0919E023091940223E03F
:1038E000230F2D3758F50196A11DB11D2093940289
:1038F00080939B0290939C02A0939D02B0939E02A2
:103900008091950290919602A0919702B0919802B1
:103910000196A11DB11D8093950290939602A093EC
:103920009702B0939802BF91AF919F918F913F9171
:103930002F910F900FBE0F901F90189526E8230F20
:103940000296A11DB11DD2CF1F920F920FB60F92FA
:1039500011248F939F938091E1009091E100937FD8
:103960009093E10083FF0FC01092E90091E09093E3
:10397000EB001092EC0092E39093ED0010929A020B
:1039800098E09093F00082FF22C093E09093E900CA
:103990009091F200992319F09AE39093E8009091A6
:1039A0009102992341F0909191029150909391024C
:1039B000911101C05D9A90919902992341F09091E3
:1039C0009902915090939902911101C0289A84FF15
:1039D00018C08091E2008E7E81608093E200809129
:1039E000E1008F7E8093E100809192028E7E806163
:1039F000809392029F918F910F900FBE0F901F9016
:103A0000189580FFF7CF8091E2008E7E80618093D1
:103A1000E2008091E1008E7E8093E100809192022D
:103A20008E7E8160E5CF1F920F920FB60F92112408
:103A3000CF92DF92EF92FF920F931F932F933F93BA
:103A40004F935F936F937F938F939F93AF93BF93A6
:103A5000EF93FF93CF93DF93CDB7DEB76C97DEBFC5
:103A6000CDBF1092E9008091E80083FF25C068E097
:103A7000CE0145960E94340382EF8093E8008D8941
:103A800087FF39C09091E80090FFFCCF982F907687
:103A900009F034C19E894F89588D2F89F88C911176
:103AA00031C0803861F5809193028093F1001092CB
:103AB000F1008EEF8093E8006C960FB6F894DEBFAD
:103AC0000FBECDBFDF91CF91FF91EF91BF91AF912D
:103AD0009F918F917F916F915F914F913F912F9126
:103AE0001F910F91FF90EF90DF90CF900F900FBE3E
:103AF0000F901F9018959EEF9093E800C7CF1092FB
:103B0000F100D5CF913059F48111D3CF4130510517
:103B100081F6809193028D7F80939302CACF933078
:103B200049F48111C6CF4130510519F680919302B5
:103B30008260F2CF953041F48091E80080FFFCCFA5
:103B400020682093E300B5CF963009F0A9C00B8D13
:103B50001C8D22E01092E90010928F0210928E02CA
:103B6000F2122EC010928D0210928C020E94A403B9
:103B70001F8299E09983FA8291E09E8390EA988768
:103B80009AEF998720918E0230918F02275F3F4FE5
:103B90003C832B838D831092E90010928F02109248
:103BA0008E0210938D0200938C0249E050E0BE011A
:103BB0006F5F7F4F80E00E9462020E94A40379CF72
:103BC00010938D0200938C020E944103DC01129637
:103BD0000D911C910115110509F451C1D801ED9108
:103BE000FC910480F581E02DBE016B5E7F4FC80122
:103BF0000995009709F03EC1F80100851185EACFCB
:103C0000F3E0FF120EC08F89882309F440C0823090
:103C100061F440E86FE086E191E00E942F0281119B
:103C200048CF81E28093EB0047CF813029F440E810
:103C300061E184E091E0F1CF833099F70E94410384
:103C4000DC011296ED90FC908E010F5F1F4F680112
:103C5000E114F10479F0D701ED91FC910680F78130
:103C6000E02DB801C7010995080F111DF701E08487
:103C7000F184EECFD8011C92F60101900020E9F703
:103C80003197BF016C197D0940E0C601C6CF6EEEC9
:103C900070E0FB01449150E080E80E94620209CF8D
:103CA000973009F4BECF983021F481E08093F10081
:103CB00000CF993009F0FDCE837009F0B2CFE8E271
:103CC000F1E081E031E096E32191222371F08093CD
:103CD000E9003093EB00DF0111972C912093EC0069
:103CE0009093ED008F5F873079F78EE78093EA003D
:103CF0001092EA008F8980939A02DBCE8B8D9C8D87
:103D00001092E90010928F0210928E0290938D0211
:103D100080938C02898D811192C08E899D89913A00
:103D200049F4813209F07DCF47E050E064E071E072
:103D300080E0B3CF913209F074CF833269F48F8978
:103D4000988DB0E0A0E08093000190930101A093D2
:103D50000201B0930301ADCE803269F48091E80096
:103D600082FFFCCF67E084E091E00E9434038BEF98
:103D70008093E8009ECE823209F09BCE8F8980939B
:103D80000B01EEEFFFE7859194918B3F9C4D51F134
:103D9000E0E0F8E08091040190910501A091060116
:103DA000B0910701803B9440A105B105F1F48091E9
:103DB0000B0180FD1AC0EE3F8AE0F80789F587E71E
:103DC00097E791838083809160008093900288E1DF
:103DD0009BE00FB6F894A895809360000FBE909377
:103DE000600067CEEEEFFAE0D5CF80819181873712
:103DF000974709F05ECEA895809160008861809316
:103E000060008091900280936000EE3F2AE0F2070C
:103E100089F08091FE0A9091FF0A9183808349CEB8
:103E2000808191818737980751F29093FF0A8093A0
:103E3000FE0AC5CF1092FF0A1092FE0A3ACE0E94E7
:103E40004103DC0112960D911C910115110509F435
:103E5000E8CED801ED91FC910190F081E02DBE01FA
:103E60006B5E7F4FC8010995811123CEF801008553
:103E70001185EBCF181619060CF41BCED2CEF1E04B
:103E8000FF12BECE62EF70E004CF0F931F93CF936B
:103E9000DF93CDB7DEB76E970FB6F894DEBF0FBED7
:103EA000CDBF8C0188E1E4E3F1E0DE0111960190E1
:103EB0000D928A95E1F7BE016F5F7F4FCE01499663
:103EC0000E942F10BE01675E7F4FC8010E94F70657
:103ED000CE0149960E947F0C6E960FB6F894DEBF15
:103EE0000FBECDBFDF91CF911F910F9108951F930A
:103EF000CF93DF9300D000D000D0CDB7DEB71092C3
:103F0000A2021092A10288EE93E0A0E0B0E08093BC
:103F1000A3029093A402A093A502B093A60280E509
:103F200091E09093A00280939F028FEF9FEF909378
:103F3000AC028093AB028DEC9CECACECBEE38093C6
:103F40005A0490935B04A0935C04B0935D041092B8
:103F5000620410925E0410925F041092600410924A
:103F600061048093510490935204A0935304B0933E
:103F70005404109259041092550410925604109251
:103F80005704109258048093480490934904A093D6
:103F90004A04B0934B041092500410924C041092B7
:103FA0004D0410924E0410924F046CEE71E082E4C6
:103FB00094E00E94140B67EC71E08CE394E00E94A3
:103FC000140B10923A041092390488E480933B0455
:103FD00067EE71E0CE0101960E94140BBE016F5F87
:103FE0007F4F8BEC93E00E94160CCE0101960E944D
:103FF0007F0C64EE71E0CE0101960E94140BBE01AD
:104000006F5F7F4F8DE593E00E94160CCE01019605
:104010000E947F0C65ED71E0CE0101960E94140BA9
:10402000BE016F5F7F4F8FEE92E00E94160CCE01B3
:1040300001960E947F0C10926304109284041092E7
:10404000A5041092A60480EA96E8A1E0B0E080936F
:10405000A7049093A804A093A904B093AA04109273
:10406000C5041092C4048DEA91E09093C704809334
:10407000C6048AE190E09093C9048093C80410922A
:10408000CB041092CA041092CD041092CC0410926A
:10409000CF041092CE048091BC0481112AC011E09B
:1040A0001093AF041093B00485EB94E09093B204A6
:1040B0008093B1041092B4041092B30482E691E0AC
:1040C0009093AC048093AB041092B7041092B604A2
:1040D0001092B9041092B8041093BA041093BB0460
:1040E00081EC8093B5040E9441030E941801109353
:1040F000BC04E091B604F091B7043097F9F484EC75
:1041000094E09093B7048093B6048091B8049091A2
:10411000B9042091C8043091C904820F931F909371
:10412000B9048093B80426960FB6F894DEBF0FBE8C
:10413000CDBFDF91CF911F910895FC0180819181C6
:104140000097D9F784EC94E091838083DECFCF93FE
:10415000DF93CDB7DEB7A8970FB6F894DEBF0FBEDA
:10416000CDBF789484B5826084BD84B5816084BD00
:1041700085B5826085BD85B5816085BD80916E0005
:10418000816080936E001092810080918100826036
:104190008093810080918100816080938100809173
:1041A0008000816080938000809191008260809384
:1041B00091008091910081608093910080919000A6
:1041C0008160809390008091C10084608093C100E1
:1041D0008091C10082608093C1008091C1008160A4
:1041E0008093C1008091C30081608093C30080915F
:1041F000C00082608093C0008091C2008160809383
:10420000C20080917A00846080937A0080917A0065
:10421000826080937A0080917A00816080937A0036
:1042200080917A00806880937A0010929A021092AE
:104230009302109292028091D70081608093D70000
:1042400080EA8093D80089B5806189BD89B5826094
:1042500089BD09B400FEFDCF0E94E9018091D8001C
:104260008F7C80618093D8008091E000807F809374
:10427000E0008091E1008E7E8093E1008DE08093EC
:10428000E200559A209A8FEF9FEF9093AC028093B3
:10429000AB0211E010930C016BE871E0CE010796C0
:1042A0000E94140B6BE871E0CE010D960E94140B76
:1042B000BE01635F7F4FCE0101960E940B0BCE01C2
:1042C00001960E94260960930D0170930E01809360
:1042D0000F0190931001CE0101960E947F0CBE0148
:1042E000695F7F4FCE0101960E940B0BCE010196B4
:1042F0000E942609609311017093120180931301AB
:1043000090931401CE0101960E947F0CCE010D9670
:104310000E947F0CCE0107960E947F0C89E394E0F7
:104320009093F2038093F1031092F4031092F3033D
:104330001092E8031092E703109315016BE871E007
:10434000CE0107960E94140B65EB71E0CE010D962D
:104350000E94140BBE01635F7F4FCE0101960E9445
:104360000B0BCE0101960E942609609316017093F3
:1043700017018093180190931901CE0101960E94B4
:104380007F0CBE01695F7F4FCE0101960E940B0B2F
:10439000CE0101960E94260960931A0170931B01B9
:1043A00080931C0190931D01CE0101960E947F0C09
:1043B000CE010D960E947F0CCE0107960E947F0CC5
:1043C0008EE090E00E9467294C0184E0D4018C9338
:1043D00085E011968C93119780E812968C93129732
:1043E00013961C93139715961C921E92149716966B
:1043F0001C92169718961C921E92179719961C924B
:10440000F401128613861486158690927C0380929E
:104410007B0361E085E00E948801D40111962C9114
:1044200030E0F901EA5DFE4F8491F901E257FE4F59
:10443000949121593E4FF9012491222309F42EC071
:104440008823E9F081508F30D0F4E82FF0E0E55D6B
:10445000FD4D0C94402898229C223A2290229422CE
:104460003F223F223F229F22A522A922AD22B32232
:104470003F22B722809180008F7780938000E22FC7
:10448000F0E0EE0FFF1FED5AFE4FA591B4918FB7EC
:10449000F894EC9190959E239C938FBF60E0D4019B
:1044A0008C910E948801F401218130E0F901E159E9
:1044B000FE4FE491F0E0EE0FFF1FED5AFE4F8591A5
:1044C0009491D40115969C938E931497F901E25719
:1044D000FE4FE4911696EC9316972C9130E0F9017B
:1044E000E159FE4FE491F0E0EE0FFF1FEB5BFE4F52
:1044F00045915491F40150874783F901E257FE4FEB
:10450000E4911996EC93199712962C9112972032F8
:10451000A1F12034B1F120E8F401228321E02FC081
:10452000809180008F7DA9CF80918000877FA5CF6B
:1045300084B58F7784BDA3CF84B58F7DFBCF809169
:1045400090008F77809390009ACF809190008F7D1C
:10455000F9CF80919000877FF5CF8091C0008F7751
:104560008093C0008CCF8091C0008F7DF9CF809167
:10457000C200877F8093C20082CF22E0F4012383B0
:1045800003C023E013962C93892B29F0452B19F0B7
:10459000C4010E94D80560E1762EA12CB12CC12C5B
:1045A000D12CE12CF12C00E010E0C4010E94D805D0
:1045B0001B012C01550C2208322C21019B01AC015E
:1045C000622D722D822D922D0E943D2959016A0182
:1045D0007B018C017A947110E8CFA0E00E945229EF
:1045E0003CF4AFE00E94462959016A017B018C012D
:1045F0009501A601B701C80104E00E942029D40159
:104600001A962C931A971B963C931B971C964C93C7
:104610001C971D965C9340907B0350907C03B09157
:104620007D03BDA3BB2309F4FFC1312C612C712C88
:10463000812C1EA21FA2212C912C18A6C2010E941F
:10464000D8056B017C01FF0CCC08DC2C76019B01AA
:10465000AC016C2D7C2D8C2D9C2DA32CB62CC72C45
:10466000D82CEEA0FFA0022D192D0E943D29322E3C
:10467000632E742E852E6EA37FA3282E992EE8A577
:10468000EF5FE8A7FDA1EF17C8F2ADA0B12CC12CD8
:10469000D12CE12CF12C00E010E0232D362D472DFC
:1046A000582D6EA17FA1822D992D0E948228D201C2
:1046B0001A962C931A971B963C931B971C964C9317
:1046C0001C971D965C9301E010E010937A03009311
:1046D000790381E080931E016BE871E0CE010796BB
:1046E0000E94140B6BE871E0CE010D960E94140B32
:1046F000BE01635F7F4FCE0101960E940B0BCE017E
:1047000001960E94260960931F01709320018093F7
:10471000210190932201CE0101960E947F0CBE01DF
:10472000695F7F4FCE0101960E940B0BCE0101966F
:104730000E94260960932301709324018093250130
:1047400090932601CE0101960E947F0CCE010D961A
:104750000E947F0CCE0107960E947F0C89E394E0B3
:104760009093160380931503109318030093170377
:1047700010920C0310920B038FEF93E00E94E5263A
:10478000843509F04FC170E060E08FEE92E00E9446
:10479000140F6CE370E08DE593E00E94140F6EE15E
:1047A00070E08BEC93E00E94140F68EC70E0CE0197
:1047B0004F960E94250B61ED71E0CE0149960E9453
:1047C000140BBE01675E7F4FCE0101960E940B0B5A
:1047D000BE01615E7F4FCE0101960E94880ABC0136
:1047E000CE0107960E940B0BCE0107960E94550D35
:1047F000CE0107960E947F0CCE0101960E947F0C8D
:1048000062ED70E0CE0143960E94250B69EC71E0E9
:10481000CE010D960E94140BBE01635F7F4FCE0147
:1048200001960E940B0BBE016D5E7F4FCE0101967B
:104830000E94880ABC01CE0107960E940B0BCE0194
:1048400007960E94870CCE0107960E947F0CCE012E
:1048500001960E947F0C6AE570E08FEE92E00E9464
:10486000F80F68E770E08DE593E00E94F80F66E9C5
:1048700070E08BEC93E00E94F80FCE010D960E9441
:104880007F0CCE0143960E947F0CCE0149960E9478
:104890007F0CCE014F960E947F0C0E945503209101
:1048A000A7043091A8044091A9045091AA04283E7D
:1048B000B3E03B074105510520F428EE33E040E02A
:1048C00050E02093A7043093A8044093A904509388
:1048D000AA041092B90060E074E284EF90E00E94B4
:1048E000FF27DA01C9014097A109B109B695A7953B
:1048F000979587958F3F9105A105B10529F020F087
:104900008FEF90E0A0E0B0E08093B80084E0809367
:10491000BC0062E082E00E94880162E083E00E94C5
:10492000880180E89AE1A6E0B0E08093A704909324
:10493000A804A093A904B093AA041092B9008CE033
:104940008093B80083E694E090933A04809339040E
:104950008091110190911201A0911301B091140165
:1049600040910D0150910E0160910F017091100165
:104970004093D7035093D8036093D9037093DA031D
:104980008093DB039093DC03A093DD03B093DE03FD
:1049900080911A0190911B01A0911C01B0911D0101
:1049A0004091160150911701609118017091190101
:1049B0004093690350936A0360936B0370936C0395
:1049C00080936D0390936E03A0936F03B093700375
:1049D0008091230190912401A0912501B09126019D
:1049E00040911F015091200160912101709122019D
:1049F0004093FB025093FC026093FD027093FE0211
:104A00008093FF0290930003A0930103B0930203ED
:104A100000E010E00E940F1601151105D9F30E9465
:104A20000000F8CF0E947911C2010E94D805362EED
:104A3000672E782E892EDC01CB01BB0F880B982FB7
:104A4000DC018EA38FA3282E982EE1E0EDA31DCECE
:104A500085EF92E00E947F0C8FEE92E00E947F0C27
:104A600083E693E00E947F0C8DE593E00E947F0C2B
:104A700081ED93E00E947F0C8BEC93E00E947F0C11
:104A80008CE394E00E947F0C82E494E00C947F0C11
:104A90001F93FC0199278827BC01E89411911032DB
:104AA000E9F3193010F01E30C8F31B3251F01D32FB
:104AB00049F4689406C00E948925610F711D811D0B
:104AC000911D119110531A30B0F33EF490958095DA
:104AD000709561957F4F8F4F9F4F1F910895BB2712
:104AE0004A3031F4992322F4BDE2909581959F4F8D
:104AF0000C94C125BB272A3051F4992342F4BDE21E
:104B000090958095709561957F4F8F4F9F4F0C9436
:104B10009F25592F482F372F262F660F771F881F65
:104B2000991F660F771F881F991F620F731F841FBD
:104B3000951F660F771F881F991F0895BB27FA01DD
:104B4000A62F6217710581059105330B30FB66F0C6
:104B5000AA27660F771F881F991FAA1FA21710F098
:104B6000A21B63953850A9F7A05DAA3308F0A95D90
:104B7000A19336F7B111B1931082CA010C94DA25D2
:104B8000BB27FB015527AA27880F991FAA1FA41727
:104B900010F0A41B83955051B9F7A05DAA3308F01B
:104BA000A95DA193009779F7B111B1931192CB014F
:104BB0000C94DA25DC01FC01672F71917723E1F772
:104BC000329704C07C916D9370836291AE17BF07DA
:104BD000C8F30895E89409C097FB3EF4909580953A
:104BE000709561957F4F8F4F9F4F9923A9F0F92FB3
:104BF00096E9BB279395F695879577956795B79531
:104C0000F111F8CFFAF4BB0F11F460FF1BC06F5F16
:104C10007F4F8F4F9F4F16C0882311F096E911C028
:104C2000772321F09EE8872F762F05C0662371F049
:104C300096E8862F70E060E02AF09A95660F771F5D
:104C4000881FDAF7880F9695879597F908950E943F
:104C50003A260C94AB260E949D2638F00E94A4268A
:104C600020F0952311F00C9494260C949A2611248C
:104C70000C94DF260E94BC2670F3959FC1F3950F1C
:104C800050E0551F629FF001729FBB27F00DB11DD0
:104C9000639FAA27F00DB11DAA1F649F6627B00D60
:104CA000A11D661F829F2227B00DA11D621F739F49
:104CB000B00DA11D621F839FA00D611D221F749F57
:104CC0003327A00D611D231F849F600D211D822F9E
:104CD000762F6A2F11249F5750409AF0F1F08823C5
:104CE0004AF0EE0FFF1FBB1F661F771F881F9150F2
:104CF0005040A9F79E3F510580F00C9494260C94E7
:104D0000DF265F3FE4F3983ED4F386957795679569
:104D1000B795F795E7959F5FC1F7FE2B880F911D1B
:104D20009695879597F9089597F99F6780E870E0C1
:104D300060E008959FEF80EC089500240A94161611
:104D4000170618060906089500240A941216130679
:104D5000140605060895092E0394000C11F4882307
:104D600052F0BB0F40F4BF2B11F460FF04C06F5F23
:104D70007F4F8F4F9F4F089557FD9058440F551FF9
:104D800059F05F3F71F04795880F97FB991F61F0CD
:104D90009F3F79F087950895121613061406551F44
:104DA000F2CF4695F1DF08C0161617061806991FB0
:104DB000F1CF86957105610508940895E894BB27A5
:104DC00066277727CB0197F90895F999FECF92BD11
:104DD00081BDF89A992780B50895262FF999FECFBD
:104DE0001FBA92BD81BD20BD0FB6F894FA9AF99A08
:104DF0000FBE019608950E943D27A59F900DB49F78
:104E0000900DA49F800D911D112408952F923F9223
:104E10004F925F926F927F928F929F92AF92BF92CA
:104E2000CF92DF92EF92FF920F931F93CF93DF9376
:104E3000CDB7DEB7CA1BDB0B0FB6F894DEBF0FBED3
:104E4000CDBF09942A88398848885F846E847D8420
:104E50008C849B84AA84B984C884DF80EE80FD8022
:104E60000C811B81AA81B981CE0FD11D0FB6F89498
:104E7000DEBF0FBECDBFED010895A29FB001B39F6D
:104E8000C001A39F700D811D1124911DB29F700D53
:104E9000811D1124911D08955058BB27AA270E94F7
:104EA00064270C94AB260E949D2638F00E94A4260D
:104EB00020F039F49F3F19F426F40C949A260EF44E
:104EC000E095E7FB0C949426E92F0E94BC2658F34A
:104ED000BA17620773078407950720F079F4A6F5DF
:104EE0000C94DE260EF4E0950B2EBA2FA02D0B01AC
:104EF000B90190010C01CA01A0011124FF27591B1F
:104F000099F0593F50F4503E68F11A16F040A22F24
:104F1000232F342F4427585FF3CF46953795279595
:104F2000A795F0405395C9F77EF41F16BA0B620B94
:104F3000730B840BBAF09150A1F0FF0FBB1F661FDB
:104F4000771F881FC2F70EC0BA0F621F731F841F1E
:104F500048F4879577956795B795F7959E3F08F044
:104F6000B0CF9395880F08F09927EE0F9795879506
:104F700008950E94C0276894B1110C94DF2608950B
:104F80000E94C42688F09F5798F0B92F9927B751EF
:104F9000B0F0E1F0660F771F881F991F1AF0BA95DD
:104FA000C9F714C0B13091F00E94DE26B1E0089537
:104FB0000C94DE26672F782F8827B85F39F0B93F29
:104FC000CCF3869577956795B395D9F73EF4909590
:104FD0008095709561957F4F8F4F9F4F0895DB01AE
:104FE0008F939F930E94FB26BF91AF91A29F800D4C
:104FF000911DA39F900DB29F900D11240895A1E2E1
:105000001A2EAA1BBB1BFD010DC0AA1FBB1FEE1F42
:10501000FF1FA217B307E407F50720F0A21BB30B8D
:10502000E40BF50B661F771F881F991F1A9469F709
:1050300060957095809590959B01AC01BD01CF0165
:105040000895052E97FB1EF400940E94382857FD02
:1050500007D00E94FF2707FC03D04EF40C94382899
:1050600050954095309521953F4F4F4F5F4F089594
:1050700090958095709561957F4F8F4F9F4F0895C4
:10508000EE0FFF1F0590F491E02D099497FB57FF59
:105090000C9456289F938F930E9456286E1B7F0B6B
:1050A000AF91BF918A0B9B0B0895E894DF93CF9348
:1050B000FC01DB010E943D277F936F93E9019A0178
:1050C000AC01BF93AF933F932F93DF010E943D2725
:1050D00026F46C1B7D0B820B930B9E01EB01FC01F4
:1050E0000E945E29AF91BF912F913F910E945E294E
:1050F000BE01CF01F9012F913F91CF91DF9108952A
:10510000689401C0E894F92FF12B12F00C94B428A4
:10511000A0E0B0E0EEE8F8E20C940C27092E05942C
:1051200022F40E941029112392F4F0E80F26FFEFD9
:10513000E094F09400951095B094C094D094A1940C
:10514000BF0ACF0ADF0AEF0AFF0A0F0B1F0B0E94EC
:10515000BF2807FC0E941029CDB7DEB7ECE00C9405
:105160002827689401C0E8948F929F92CF93DF9391
:105170000E94BF28DF91CF919F908F90089588243F
:105180009924F401E401B0E49F93AA279A158B04B3
:105190009C04ED05FE05CF05D007A10798F4AD2FBF
:1051A000DC2FCF2FFE2FE92D982C892E982F872FBB
:1051B000762F652F542F432F322F2227B85031F7E7
:1051C000BF9127C01B2EBF91BB27220F331F441F47
:1051D000551F661F771F881F991F881C991CEE1F7B
:1051E000FF1FCC1FDD1FAA1FBB1F8A149B04EC05E9
:1051F000FD05CE05DF05A007B10748F08A189B081A
:10520000EC09FD09CE09DF09A00BB10B21601A944E
:10521000E1F62EF49401AF01BE01CD01000C08951A
:105220006095709580959095309540955095219515
:105230003F4F4F4F5F4F6F4F7F4F8F4F9F4F08959F
:1052400097FD1094002E083098F00850232F342F2B
:10525000452F562F672F782F892F912DF4CF159436
:10526000979587957795679557954795379527959E
:105270000A95AAF71124002D08952A0D3B1D4C1DF7
:105280005D1D6E1D7F1D801F911F08950024A7FDC9
:1052900000942A0F301D401D501D601D701D801D83
:1052A000901D08950024A7FD00942A17300540059D
:1052B0005005600570058005900508950E943D2702
:1052C000460F571FC81FD91F08F4319608950F9332
:1052D0001F93CF93DF938230910510F482E090E02A
:1052E000E091D204F091D30430E020E0B0E0A0E0FF
:1052F000309799F42115310509F44AC0281B390B60
:1053000024303105D8F58A819B816115710589F1B9
:10531000FB0193838283FE0111C040815181028190
:10532000138148175907E0F04817590799F4109767
:1053300061F012960C93129713961C933296CF013C
:10534000DF91CF911F910F9108950093D204109394
:10535000D304F4CF2115310551F04217530738F02B
:10536000A901DB019A01BD01DF01F801C1CFEF0105
:10537000F9CF9093D3048093D204CDCFFE01E20FF6
:10538000F31F819391932250310939832883D7CF1A
:105390002091D0043091D104232B41F4209130018D
:1053A000309131013093D1042093D00420912E010B
:1053B00030912F012115310541F42DB73EB74091B1
:1053C000320150913301241B350BE091D004F09150
:1053D000D104E217F307A0F42E1B3F0B281739075F
:1053E00078F0AC014E5F5F4F2417350748F04E0F41
:1053F0005F1F5093D1044093D004819391939FCF2A
:10540000F0E0E0E09CCFCF93DF930097E9F0FC0160
:10541000329713821282A091D204B091D304ED018D
:1054200030E020E01097A1F420813181820F931F9A
:105430002091D0043091D1042817390709F061C0B8
:10544000F093D104E093D004DF91CF910895EA0165
:10545000CE17DF07E8F54A815B819E0141155105B2
:10546000B1F7E901FB83EA8349915991C40FD51F34
:10547000EC17FD0761F4808191810296840F951FDE
:10548000E90199838883828193819B838A83F0E0F9
:10549000E0E012968D919C9113970097B9F52D91AC
:1054A0003C911197CD010296820F931F2091D00459
:1054B0003091D1042817390739F6309751F51092F9
:1054C000D3041092D204B093D104A093D004BCCFE3
:1054D000D383C28340815181840F951FC817D90798
:1054E00061F44E5F5F4F88819981480F591F518346
:1054F00040838A819B81938382832115310509F042
:10550000B0CFF093D304E093D2049ECFFD01DC0131
:10551000C0CF13821282D7CFB0E0A0E0E2E9FAE276
:105520000C9408278C01009751F4CB010E94672945
:105530008C01C801CDB7DEB7E0E10C942427FC0153
:10554000E60FF71F9C0122503109E217F30708F418
:105550009DC0D901CD91DC911197C617D70798F05E
:10556000C530D10530F3CE0104978617970708F3AD
:10557000C61BD70B2297C193D1936D937C93CF0118
:105580000E94032AD6CF5B01AC1ABD0A4C018C0ED7
:105590009D1EA091D204B091D304512C412CF12C2A
:1055A000E12C109731F58091D0049091D1048815A9
:1055B000990509F05CC04616570608F058C080915E
:1055C0002E0190912F01009741F48DB79EB7409125
:1055D000320150913301841B950BE817F90708F04D
:1055E00055C0F093D104E093D004F9017183608336
:1055F000A0CF8D919C91119712966C901297139653
:105600007C901397A815B90559F56C0142E0C40EBA
:10561000D11CCA14DB0420F1AC014A195B09DA0180
:105620001296159780F06282738251834083D9016C
:105630006D937C93E114F10471F0D7011396FC9300
:10564000EE93129776CF22968C0F9D1FF9019183CE
:105650008083F301EFCFF093D304E093D20469CFBA
:105660004816590608F42C017D01D3019ACFCB01CD
:105670000E9467297C01009749F0AE01B8010E94A1
:10568000492BC8010E94032A870153CF10E000E094
:1056900050CFFB01DC0102C001900D9241505040FF
:1056A000D8F708956817790768F4FB01DC01E40F67
:1056B000F51FA40FB51F02C002900E92415050403A
:1056C000D8F708950C94492BFB01DC018D910190D2
:1056D00080190110D9F3990B0895FB01DC010190A9
:1056E0000D920020E1F70895FB0151915523A9F097
:1056F000BF01DC014D9145174111E1F759F4CD018E
:105700000190002049F04D9140154111C9F3FB0172
:105710004111EFCF81E090E00197089510E0C5EED0
:10572000D0E004C0FE010E9440282196C63ED10769
:06573000C9F7F894FFCF59
:10573600FFFFFFFF00E100000000000000FF7F0008
:1057460000FF7F000000FF7F0000FF7F000000FFDA
:105756007F0000FF7F000000C18081000000000084
:10576600D40480000000000014000000280000009F
:105776003C00000050000000640000000000000033
:10578600EB03D503990201048E040C046A0400009D
:105796000000A8042105E604CB040D0A003130629E
:1057A60069740031316269740031326269740031A2
:1057B6003362697400313462697400313562697428
:1057C60000313662697400313762697400313862BB
:1057D600697400313962697400323062697400326A
:1057E60031626974003232626974003233626974FC
:1057F600003234626974002D0041444147494F3AF2
:1058060000494E434F4E3A00302D302D3000312D99
:10581600312D3100463A00413A003B002C00636CC2
:10582600656172454550524F4D00646F6E6500527A
:105836006573657444657669636500476574557379
:105846006167650055534147453A004765744D61A8
:1058560070004E4D41503A00464D41503A00414D80
:1058660041503A00476574496E7665727465640006
:10587600476574536D6F6F74680047657443616C58
:1058860069004E43414C493A004643414C493A006F
:105896004143414C493A004765744269747300427A
:1058A6004954583A0043414C495245534554000027
:00000001FF
